{"abi":[{"type":"constructor","inputs":[{"name":"_manager","type":"address","internalType":"address"},{"name":"_owner","type":"address","internalType":"address"},{"name":"_agent","type":"address","internalType":"address"}],"stateMutability":"nonpayable"},{"type":"function","name":"agent","inputs":[],"outputs":[{"name":"","type":"address","internalType":"address"}],"stateMutability":"view"},{"type":"function","name":"agenticUpdate","inputs":[{"name":"tokenId","type":"uint256","internalType":"uint256"},{"name":"expression","type":"uint8","internalType":"uint8"}],"outputs":[],"stateMutability":"nonpayable"},{"type":"function","name":"approve","inputs":[{"name":"to","type":"address","internalType":"address"},{"name":"tokenId","type":"uint256","internalType":"uint256"}],"outputs":[],"stateMutability":"nonpayable"},{"type":"function","name":"balanceOf","inputs":[{"name":"owner","type":"address","internalType":"address"}],"outputs":[{"name":"","type":"uint256","internalType":"uint256"}],"stateMutability":"view"},{"type":"function","name":"frozen","inputs":[{"name":"tokenId","type":"uint256","internalType":"uint256"}],"outputs":[{"name":"","type":"bool","internalType":"bool"}],"stateMutability":"view"},{"type":"function","name":"getApproved","inputs":[{"name":"tokenId","type":"uint256","internalType":"uint256"}],"outputs":[{"name":"","type":"address","internalType":"address"}],"stateMutability":"view"},{"type":"function","name":"getFreezeNonce","inputs":[{"name":"tokenId","type":"uint256","internalType":"uint256"}],"outputs":[{"name":"nonce","type":"uint256","internalType":"uint256"}],"stateMutability":"view"},{"type":"function","name":"getScopeName","inputs":[],"outputs":[{"name":"","type":"string","internalType":"string"}],"stateMutability":"view"},{"type":"function","name":"imageURI","inputs":[{"name":"tokenId","type":"uint256","internalType":"uint256"}],"outputs":[{"name":"","type":"string","internalType":"string"}],"stateMutability":"pure"},{"type":"function","name":"isApprovedForAll","inputs":[{"name":"owner","type":"address","internalType":"address"},{"name":"operator","type":"address","internalType":"address"}],"outputs":[{"name":"","type":"bool","internalType":"bool"}],"stateMutability":"view"},{"type":"function","name":"loadExpression","inputs":[{"name":"tokenId","type":"uint256","internalType":"uint256"}],"outputs":[{"name":"","type":"uint8","internalType":"uint8"}],"stateMutability":"view"},{"type":"function","name":"loadMetadata","inputs":[{"name":"tokenId","type":"uint256","internalType":"uint256"}],"outputs":[{"name":"data","type":"tuple","internalType":"struct AIvatarGenerated.Metadata","components":[{"name":"expression","type":"uint8","internalType":"uint8"}]}],"stateMutability":"view"},{"type":"function","name":"loadPackedMetadata","inputs":[{"name":"tokenId","type":"uint256","internalType":"uint256"}],"outputs":[{"name":"","type":"uint256[]","internalType":"uint256[]"}],"stateMutability":"view"},{"type":"function","name":"loadPackedMetadataSlot","inputs":[{"name":"tokenId","type":"uint256","internalType":"uint256"},{"name":"slot","type":"uint256","internalType":"uint256"}],"outputs":[{"name":"","type":"uint256","internalType":"uint256"}],"stateMutability":"view"},{"type":"function","name":"locked","inputs":[{"name":"tokenId","type":"uint256","internalType":"uint256"}],"outputs":[{"name":"","type":"bool","internalType":"bool"}],"stateMutability":"view"},{"type":"function","name":"mint","inputs":[{"name":"to","type":"address","internalType":"address"},{"name":"data","type":"bytes","internalType":"bytes"}],"outputs":[{"name":"tokenId","type":"uint256","internalType":"uint256"}],"stateMutability":"payable"},{"type":"function","name":"mintBatch","inputs":[{"name":"to","type":"address","internalType":"address"},{"name":"data","type":"bytes","internalType":"bytes"},{"name":"quantity","type":"uint256","internalType":"uint256"}],"outputs":[{"name":"tokenIds","type":"uint256[]","internalType":"uint256[]"}],"stateMutability":"payable"},{"type":"function","name":"name","inputs":[],"outputs":[{"name":"","type":"string","internalType":"string"}],"stateMutability":"view"},{"type":"function","name":"owner","inputs":[],"outputs":[{"name":"","type":"address","internalType":"address"}],"stateMutability":"view"},{"type":"function","name":"ownerOf","inputs":[{"name":"tokenId","type":"uint256","internalType":"uint256"}],"outputs":[{"name":"","type":"address","internalType":"address"}],"stateMutability":"view"},{"type":"function","name":"packMetadata","inputs":[{"name":"data","type":"tuple","internalType":"struct AIvatarGenerated.Metadata","components":[{"name":"expression","type":"uint8","internalType":"uint8"}]}],"outputs":[{"name":"slots","type":"uint256[]","internalType":"uint256[]"}],"stateMutability":"pure"},{"type":"function","name":"renounceOwnership","inputs":[],"outputs":[],"stateMutability":"nonpayable"},{"type":"function","name":"safeTransferFrom","inputs":[{"name":"from","type":"address","internalType":"address"},{"name":"to","type":"address","internalType":"address"},{"name":"tokenId","type":"uint256","internalType":"uint256"}],"outputs":[],"stateMutability":"nonpayable"},{"type":"function","name":"safeTransferFrom","inputs":[{"name":"from","type":"address","internalType":"address"},{"name":"to","type":"address","internalType":"address"},{"name":"tokenId","type":"uint256","internalType":"uint256"},{"name":"data","type":"bytes","internalType":"bytes"}],"outputs":[],"stateMutability":"nonpayable"},{"type":"function","name":"safeTransferFromWithFreezeNonce","inputs":[{"name":"from","type":"address","internalType":"address"},{"name":"to","type":"address","internalType":"address"},{"name":"tokenId","type":"uint256","internalType":"uint256"},{"name":"nonce","type":"uint256","internalType":"uint256"}],"outputs":[],"stateMutability":"nonpayable"},{"type":"function","name":"safeTransferFromWithFreezeNonce","inputs":[{"name":"from","type":"address","internalType":"address"},{"name":"to","type":"address","internalType":"address"},{"name":"tokenId","type":"uint256","internalType":"uint256"},{"name":"data","type":"bytes","internalType":"bytes"},{"name":"nonce","type":"uint256","internalType":"uint256"}],"outputs":[],"stateMutability":"nonpayable"},{"type":"function","name":"schema","inputs":[],"outputs":[{"name":"","type":"tuple","internalType":"struct IPatchworkMetadata.MetadataSchema","components":[{"name":"version","type":"uint256","internalType":"uint256"},{"name":"entries","type":"tuple[]","internalType":"struct IPatchworkMetadata.MetadataSchemaEntry[]","components":[{"name":"id","type":"uint256","internalType":"uint256"},{"name":"permissionId","type":"uint256","internalType":"uint256"},{"name":"fieldType","type":"uint8","internalType":"enum IPatchworkMetadata.FieldType"},{"name":"fieldCount","type":"uint256","internalType":"uint256"},{"name":"visibility","type":"uint8","internalType":"enum IPatchworkMetadata.FieldVisibility"},{"name":"slot","type":"uint256","internalType":"uint256"},{"name":"offset","type":"uint256","internalType":"uint256"},{"name":"key","type":"string","internalType":"string"}]}]}],"stateMutability":"pure"},{"type":"function","name":"schemaURI","inputs":[],"outputs":[{"name":"","type":"string","internalType":"string"}],"stateMutability":"pure"},{"type":"function","name":"setAgent","inputs":[{"name":"newAgent","type":"address","internalType":"address"}],"outputs":[],"stateMutability":"nonpayable"},{"type":"function","name":"setApprovalForAll","inputs":[{"name":"operator","type":"address","internalType":"address"},{"name":"approved","type":"bool","internalType":"bool"}],"outputs":[],"stateMutability":"nonpayable"},{"type":"function","name":"setFrozen","inputs":[{"name":"tokenId","type":"uint256","internalType":"uint256"},{"name":"frozen_","type":"bool","internalType":"bool"}],"outputs":[],"stateMutability":"nonpayable"},{"type":"function","name":"setLocked","inputs":[{"name":"tokenId","type":"uint256","internalType":"uint256"},{"name":"locked_","type":"bool","internalType":"bool"}],"outputs":[],"stateMutability":"nonpayable"},{"type":"function","name":"setPermissions","inputs":[{"name":"to","type":"address","internalType":"address"},{"name":"permissions","type":"uint256","internalType":"uint256"}],"outputs":[],"stateMutability":"nonpayable"},{"type":"function","name":"storeExpression","inputs":[{"name":"tokenId","type":"uint256","internalType":"uint256"},{"name":"expression","type":"uint8","internalType":"uint8"}],"outputs":[],"stateMutability":"nonpayable"},{"type":"function","name":"storeMetadata","inputs":[{"name":"tokenId","type":"uint256","internalType":"uint256"},{"name":"data","type":"tuple","internalType":"struct AIvatarGenerated.Metadata","components":[{"name":"expression","type":"uint8","internalType":"uint8"}]}],"outputs":[],"stateMutability":"nonpayable"},{"type":"function","name":"storePackedMetadata","inputs":[{"name":"tokenId","type":"uint256","internalType":"uint256"},{"name":"data","type":"uint256[]","internalType":"uint256[]"}],"outputs":[],"stateMutability":"nonpayable"},{"type":"function","name":"storePackedMetadataSlot","inputs":[{"name":"tokenId","type":"uint256","internalType":"uint256"},{"name":"slot","type":"uint256","internalType":"uint256"},{"name":"data","type":"uint256","internalType":"uint256"}],"outputs":[],"stateMutability":"nonpayable"},{"type":"function","name":"supportsInterface","inputs":[{"name":"interfaceID","type":"bytes4","internalType":"bytes4"}],"outputs":[{"name":"","type":"bool","internalType":"bool"}],"stateMutability":"view"},{"type":"function","name":"symbol","inputs":[],"outputs":[{"name":"","type":"string","internalType":"string"}],"stateMutability":"view"},{"type":"function","name":"tokenURI","inputs":[{"name":"tokenId","type":"uint256","internalType":"uint256"}],"outputs":[{"name":"","type":"string","internalType":"string"}],"stateMutability":"view"},{"type":"function","name":"transferFrom","inputs":[{"name":"from","type":"address","internalType":"address"},{"name":"to","type":"address","internalType":"address"},{"name":"tokenId","type":"uint256","internalType":"uint256"}],"outputs":[],"stateMutability":"nonpayable"},{"type":"function","name":"transferFromWithFreezeNonce","inputs":[{"name":"from","type":"address","internalType":"address"},{"name":"to","type":"address","internalType":"address"},{"name":"tokenId","type":"uint256","internalType":"uint256"},{"name":"nonce","type":"uint256","internalType":"uint256"}],"outputs":[],"stateMutability":"nonpayable"},{"type":"function","name":"transferOwnership","inputs":[{"name":"newOwner","type":"address","internalType":"address"}],"outputs":[],"stateMutability":"nonpayable"},{"type":"function","name":"unpackMetadata","inputs":[{"name":"slots","type":"uint256[]","internalType":"uint256[]"}],"outputs":[{"name":"data","type":"tuple","internalType":"struct AIvatarGenerated.Metadata","components":[{"name":"expression","type":"uint8","internalType":"uint8"}]}],"stateMutability":"pure"},{"type":"event","name":"Approval","inputs":[{"name":"owner","type":"address","indexed":true,"internalType":"address"},{"name":"approved","type":"address","indexed":true,"internalType":"address"},{"name":"tokenId","type":"uint256","indexed":true,"internalType":"uint256"}],"anonymous":false},{"type":"event","name":"ApprovalForAll","inputs":[{"name":"owner","type":"address","indexed":true,"internalType":"address"},{"name":"operator","type":"address","indexed":true,"internalType":"address"},{"name":"approved","type":"bool","indexed":false,"internalType":"bool"}],"anonymous":false},{"type":"event","name":"BatchMetadataUpdate","inputs":[{"name":"_fromTokenId","type":"uint256","indexed":true,"internalType":"uint256"},{"name":"_toTokenId","type":"uint256","indexed":true,"internalType":"uint256"}],"anonymous":false},{"type":"event","name":"Frozen","inputs":[{"name":"tokenId","type":"uint256","indexed":true,"internalType":"uint256"}],"anonymous":false},{"type":"event","name":"Locked","inputs":[{"name":"tokenId","type":"uint256","indexed":true,"internalType":"uint256"}],"anonymous":false},{"type":"event","name":"MetadataUpdate","inputs":[{"name":"_tokenId","type":"uint256","indexed":true,"internalType":"uint256"}],"anonymous":false},{"type":"event","name":"OwnershipTransferred","inputs":[{"name":"previousOwner","type":"address","indexed":true,"internalType":"address"},{"name":"newOwner","type":"address","indexed":true,"internalType":"address"}],"anonymous":false},{"type":"event","name":"PermissionChange","inputs":[{"name":"to","type":"address","indexed":true,"internalType":"address"},{"name":"permissions","type":"uint256","indexed":false,"internalType":"uint256"}],"anonymous":false},{"type":"event","name":"SchemaChange","inputs":[{"name":"addr","type":"address","indexed":true,"internalType":"address"}],"anonymous":false},{"type":"event","name":"Thawed","inputs":[{"name":"tokenId","type":"uint256","indexed":true,"internalType":"uint256"}],"anonymous":false},{"type":"event","name":"Transfer","inputs":[{"name":"from","type":"address","indexed":true,"internalType":"address"},{"name":"to","type":"address","indexed":true,"internalType":"address"},{"name":"tokenId","type":"uint256","indexed":true,"internalType":"uint256"}],"anonymous":false},{"type":"event","name":"Unlocked","inputs":[{"name":"tokenId","type":"uint256","indexed":true,"internalType":"uint256"}],"anonymous":false},{"type":"error","name":"ERC721IncorrectOwner","inputs":[{"name":"sender","type":"address","internalType":"address"},{"name":"tokenId","type":"uint256","internalType":"uint256"},{"name":"owner","type":"address","internalType":"address"}]},{"type":"error","name":"ERC721InsufficientApproval","inputs":[{"name":"operator","type":"address","internalType":"address"},{"name":"tokenId","type":"uint256","internalType":"uint256"}]},{"type":"error","name":"ERC721InvalidApprover","inputs":[{"name":"approver","type":"address","internalType":"address"}]},{"type":"error","name":"ERC721InvalidOperator","inputs":[{"name":"operator","type":"address","internalType":"address"}]},{"type":"error","name":"ERC721InvalidOwner","inputs":[{"name":"owner","type":"address","internalType":"address"}]},{"type":"error","name":"ERC721InvalidReceiver","inputs":[{"name":"receiver","type":"address","internalType":"address"}]},{"type":"error","name":"ERC721InvalidSender","inputs":[{"name":"sender","type":"address","internalType":"address"}]},{"type":"error","name":"ERC721NonexistentToken","inputs":[{"name":"tokenId","type":"uint256","internalType":"uint256"}]},{"type":"error","name":"IncorrectNonce","inputs":[{"name":"addr","type":"address","internalType":"address"},{"name":"tokenId","type":"uint256","internalType":"uint256"},{"name":"nonce","type":"uint256","internalType":"uint256"}]},{"type":"error","name":"NotAuthorized","inputs":[{"name":"addr","type":"address","internalType":"address"}]},{"type":"error","name":"NotAuthorized","inputs":[{"name":"sender","type":"address","internalType":"address"}]},{"type":"error","name":"NotFrozen","inputs":[{"name":"addr","type":"address","internalType":"address"},{"name":"tokenId","type":"uint256","internalType":"uint256"}]},{"type":"error","name":"OwnableInvalidOwner","inputs":[{"name":"owner","type":"address","internalType":"address"}]},{"type":"error","name":"OwnableUnauthorizedAccount","inputs":[{"name":"account","type":"address","internalType":"address"}]}],"bytecode":{"object":"0x60a060405234801562000010575f80fd5b5060405162002fc038038062002fc08339810160408190526200003391620001a8565b82826040518060400160405280600781526020016630b4bb30ba30b960c91b8152506040518060400160405280600781526020016620a4bb30ba30b960c91b8152506040518060400160405280600781526020016620a4ab20aa20a960c91b8152508484808484815f9081620000aa91906200028d565b506001620000b982826200028d565b5050506001600160a01b038116620000ea57604051631e4fbdf760e01b81525f600482015260240160405180910390fd5b620000f5816200013b565b5060076200010486826200028d565b50506001600160a01b03908116608052600e80546001600160a01b0319169790911696909617909555506200035995505050505050565b600680546001600160a01b038381166001600160a01b0319831681179093556040519116919082907f8be0079c531659141344cd1fd0a4f28419497f9722a3daafe3b4186f6b6457e0905f90a35050565b80516001600160a01b0381168114620001a3575f80fd5b919050565b5f805f60608486031215620001bb575f80fd5b620001c6846200018c565b9250620001d6602085016200018c565b9150620001e6604085016200018c565b90509250925092565b634e487b7160e01b5f52604160045260245ffd5b600181811c908216806200021857607f821691505b6020821081036200023757634e487b7160e01b5f52602260045260245ffd5b50919050565b601f8211156200028857805f5260205f20601f840160051c81016020851015620002645750805b601f840160051c820191505b8181101562000285575f815560010162000270565b50505b505050565b81516001600160401b03811115620002a957620002a9620001ef565b620002c181620002ba845462000203565b846200023d565b602080601f831160018114620002f7575f8415620002df5750858301515b5f19600386901b1c1916600185901b17855562000351565b5f85815260208120601f198616915b82811015620003275788860151825594840194600190910190840162000306565b50858210156200034557878501515f19600388901b60f8161c191681555b505060018460011b0185555b505050505050565b608051612c246200039c5f395f8181610a3c01528181610dda01528181610e16015281816111560152818161119201528181611282015261183e0152612c245ff3fe60806040526004361061025f575f3560e01c80638f742d161161013f578063c87b56dd116100b3578063f2fde38b11610078578063f2fde38b1461075c578063f44c3bf71461077b578063f4a586d01461078f578063f5ff5c76146107ae578063f8895cc8146107cd578063fc361d12146107ee575f80fd5b8063c87b56dd146106b2578063cd56d2a3146106d1578063e19267ed146106f0578063e985e9c51461070f578063e9ac04401461072e575f80fd5b8063a75573b811610104578063a75573b8146105f5578063b45a3c0e14610614578063b510391f14610642578063b713dbbf14610655578063b88d4fde14610674578063bcf685ed14610693575f80fd5b80638f742d161461056557806395d89b411461058457806396fc874b1461059857806399e39025146105b7578063a22cb465146105d6575f80fd5b8063538cae22116101d657806370a082311161019b57806370a08231146104b8578063715018a6146104d757806376b90b94146104eb5780638146725d14610516578063836a5b7d146105295780638da5cb5b14610548575f80fd5b8063538cae221461041a57806358e23bac146104395780635cf5944d1461044d5780636352211e1461047a5780636b88ddaf14610499575f80fd5b80630a3cc989116102275780630a3cc9891461034157806323b872dd1461036057806331eb76da1461037f57806342842e0e146103b057806347f1d69f146103cf5780634decc687146103fb575f80fd5b806301ffc9a714610263578063048b88ba1461029757806306fdde03146102c8578063081812fc146102e9578063095ea7b314610320575b5f80fd5b34801561026e575f80fd5b5061028261027d366004612147565b61080d565b60405190151581526020015b60405180910390f35b3480156102a2575f80fd5b506102b66102b1366004612162565b610837565b60405160ff909116815260200161028e565b3480156102d3575f80fd5b506102dc610869565b60405161028e91906121c6565b3480156102f4575f80fd5b50610308610303366004612162565b6108f8565b6040516001600160a01b03909116815260200161028e565b34801561032b575f80fd5b5061033f61033a3660046121f3565b61091f565b005b34801561034c575f80fd5b5061033f61035b36600461222a565b61092e565b34801561036b575f80fd5b5061033f61037a366004612254565b610a0e565b34801561038a575f80fd5b5061039e610399366004612162565b610aa3565b604051905160ff16815260200161028e565b3480156103bb575f80fd5b5061033f6103ca366004612254565b610b0c565b3480156103da575f80fd5b506103ee6103e936600461232a565b610b26565b60405161028e9190612344565b348015610406575f80fd5b506103ee610415366004612162565b610b72565b348015610425575f80fd5b5061033f610434366004612415565b610bd1565b348015610444575f80fd5b506102dc610c18565b348015610458575f80fd5b5061046c610467366004612458565b610c38565b60405190815260200161028e565b348015610485575f80fd5b50610308610494366004612162565b610c68565b3480156104a4575f80fd5b5061033f6104b336600461222a565b610c72565b3480156104c3575f80fd5b5061046c6104d2366004612478565b610d75565b3480156104e2575f80fd5b5061033f610dba565b3480156104f6575f80fd5b5061046c610505366004612162565b5f908152600a602052604090205490565b6103ee6105243660046124d5565b610dcd565b348015610534575f80fd5b5061033f61054336600461252a565b610f27565b348015610553575f80fd5b506006546001600160a01b0316610308565b348015610570575f80fd5b506102dc61057f366004612162565b610fa9565b34801561058f575f80fd5b506102dc610fda565b3480156105a3575f80fd5b5061033f6105b236600461254c565b610fe9565b3480156105c2575f80fd5b5061033f6105d136600461256d565b6110ac565b3480156105e1575f80fd5b5061033f6105f0366004612596565b611108565b348015610600575f80fd5b5061039e61060f3660046125be565b611113565b34801561061f575f80fd5b5061028261062e366004612162565b5f908152600c602052604090205460ff1690565b61046c6106503660046125ef565b61114a565b348015610660575f80fd5b5061033f61066f36600461254c565b61122c565b34801561067f575f80fd5b5061033f61068e3660046126a8565b611254565b34801561069e575f80fd5b5061033f6106ad366004612478565b6112e5565b3480156106bd575f80fd5b506102dc6106cc366004612162565b611334565b3480156106dc575f80fd5b5061033f6106eb36600461270b565b611358565b3480156106fb575f80fd5b5061033f61070a3660046121f3565b6113e8565b34801561071a575f80fd5b5061028261072936600461274a565b611467565b348015610739575f80fd5b50610282610748366004612162565b5f908152600b602052604090205460ff1690565b348015610767575f80fd5b5061033f610776366004612478565b611494565b348015610786575f80fd5b506102dc6114d1565b34801561079a575f80fd5b5061033f6107a936600461270b565b6114e0565b3480156107b9575f80fd5b50600e54610308906001600160a01b031681565b3480156107d8575f80fd5b506107e1611568565b60405161028e919061279a565b3480156107f9575f80fd5b5061033f610808366004612879565b611646565b5f631a2b25a160e11b6001600160e01b0319831614806108315750610831826116d8565b92915050565b5f81815260096020526040812080548291908290610857576108576128e3565b5f918252602090912001549392505050565b60605f8054610877906128f7565b80601f01602080910402602001604051908101604052809291908181526020018280546108a3906128f7565b80156108ee5780601f106108c5576101008083540402835291602001916108ee565b820191905f5260205f20905b8154815290600101906020018083116108d157829003601f168201915b5050505050905090565b5f61090282611745565b505f828152600460205260409020546001600160a01b0316610831565b61092a82823361177d565b5050565b8161093881610c68565b6001600160a01b0316336001600160a01b03161461097057604051634a0bfec160e01b81523360048201526024015b60405180910390fd5b5f838152600c602052604090205460ff1680151583151514610a08575f848152600c60205260409020805460ff191684158015919091179091556109dd5760405184907f032bc66be43dbccb7487781d168eb7bda224628a3b2c3388bdf69b532a3a1611905f90a2610a08565b60405184907ff27b6ce5b2f5e68ddb2fd95a8a909d4ecf1daaac270935fff052feacb24f1842905f90a25b50505050565b6040516311b590b760e21b81526001600160a01b0384811660048301528381166024830152604482018390527f000000000000000000000000000000000000000000000000000000000000000016906346d642dc906064015f604051808303815f87803b158015610a7d575f80fd5b505af1158015610a8f573d5f803e3d5ffd5b50505050610a9e83838361178a565b505050565b60408051602080820183525f8083528481526009825283902080548451818402810184019095528085529293610831939092830182828015610b0257602002820191905f5260205f20905b815481526020019060010190808311610aee575b5050505050611113565b610a9e83838360405180602001604052805f815250611254565b60408051600180825281830190925260609160208083019080368337019050509050815f015160ff16815f81518110610b6157610b616128e3565b602002602001018181525050919050565b5f81815260096020908152604091829020805483518184028101840190945280845260609392830182828015610bc557602002820191905f5260205f20905b815481526020019060010190808311610bb1575b50505050509050919050565b81610bdb8161180d565b610bfa57604051634a0bfec160e01b8152336004820152602401610967565b5f8381526009602090815260409091208351610a0892850190612075565b6060604051806060016040528060318152602001612bbe60319139905090565b5f828152600960205260408120805483908110610c5757610c576128e3565b905f5260205f200154905092915050565b5f61083182611745565b81610c7c81610c68565b6001600160a01b0316336001600160a01b031614610caf57604051634a0bfec160e01b8152336004820152602401610967565b5f838152600b602052604090205460ff1680151583151514610a08578215610d15575f848152600b6020526040808220805460ff191660011790555185917f4d69b51fee53c28bd8b61fe008151577ca65160b5248f6225e74d64fd4cf732891a2610a08565b5f848152600a60205260408120805491610d2e8361292f565b90915550505f848152600b6020526040808220805460ff191690555185917fd7ea826caa575891b88b771d03fe1da3092d4a65c5adeaccc99be085978cebe891a250505050565b5f6001600160a01b038216610d9f576040516322718ad960e21b81525f6004820152602401610967565b506001600160a01b03165f9081526003602052604090205490565b610dc261186b565b610dcb5f611898565b565b6060336001600160a01b037f00000000000000000000000000000000000000000000000000000000000000001614610e9f57604051639e5ea79d60e01b81526001600160a01b037f00000000000000000000000000000000000000000000000000000000000000001690639e5ea79d903490610e5590899030908a908a908a9060040161297b565b5f6040518083038185885af1158015610e70573d5f803e3d5ffd5b50505050506040513d5f823e601f3d908101601f19168201604052610e9891908101906129b9565b9050610f1f565b816001600160401b03811115610eb757610eb761228d565b604051908082528060200260200182016040528015610ee0578160200160208202803683370190505b5090505f5b82811015610f1d57610ef88686866118e9565b828281518110610f0a57610f0a6128e3565b6020908102919091010152600101610ee5565b505b949350505050565b610f308261180d565b610f4f57604051634a0bfec160e01b8152336004820152602401610967565b610f5881610b26565b5f8381526009602090815260409091208251610f7a9391929190910190612075565b5060405182907ff8e1a15aba9398e019f0b49df1a4fde98ee17ae345cb5f6b5e2c27f5033e8ce7905f90a25050565b6060610fb48261194c565b604051602001610fc49190612a44565b6040516020818303038152906040529050919050565b606060018054610877906128f7565b600e546001600160a01b0316331461101657604051634a0bfec160e01b8152336004820152602401610967565b5f828152600960205260408120805460ff929160ff1991839061103b5761103b6128e3565b905f5260205f200154169050818360ff1616811760095f8681526020019081526020015f205f81548110611071576110716128e3565b5f91825260208220019190915560405185917ff8e1a15aba9398e019f0b49df1a4fde98ee17ae345cb5f6b5e2c27f5033e8ce791a250505050565b826110b68161180d565b6110d557604051634a0bfec160e01b8152336004820152602401610967565b5f8481526009602052604090208054839190859081106110f7576110f76128e3565b5f9182526020909120015550505050565b61092a3383836119db565b60408051602081019091525f81525f825f81518110611134576111346128e3565b602090810291909101015160ff16825250919050565b5f336001600160a01b037f000000000000000000000000000000000000000000000000000000000000000016146112175760405163f1ddecf960e01b81526001600160a01b037f0000000000000000000000000000000000000000000000000000000000000000169063f1ddecf99034906111cf908890309089908990600401612aab565b60206040518083038185885af11580156111eb573d5f803e3d5ffd5b50505050506040513d601f19601f820116820180604052508101906112109190612ae1565b9050611225565b6112228484846118e9565b90505b9392505050565b6112358261180d565b61101657604051634a0bfec160e01b8152336004820152602401610967565b6040516311b590b760e21b81526001600160a01b0385811660048301528481166024830152604482018490527f000000000000000000000000000000000000000000000000000000000000000016906346d642dc906064015f604051808303815f87803b1580156112c3575f80fd5b505af11580156112d5573d5f803e3d5ffd5b50505050610a0884848484611a79565b6006546001600160a01b0316331461131257604051634a0bfec160e01b8152336004820152602401610967565b600e80546001600160a01b0319166001600160a01b0392909216919091179055565b606061133e611a91565b6113478361194c565b604051602001610fc4929190612af8565b8181611372825f908152600b602052604090205460ff1690565b611398576040516307045dd960e01b815230600482015260248101839052604401610967565b5f828152600a602052604090205481146113d557604051631081e84160e21b81523060048201526024810183905260448101829052606401610967565b6113e0868686610a0e565b505050505050565b6113f0611ab1565b61140f57604051634a0bfec160e01b8152336004820152602401610967565b6001600160a01b0382165f8181526008602052604090819020839055517faffd0d436417235189c464f3463b54b1009e5aebc9e8e089f1f176e2231f2f929061145b9084815260200190565b60405180910390a25050565b6001600160a01b039182165f90815260056020908152604080832093909416825291909152205460ff1690565b61149c61186b565b6001600160a01b0381166114c557604051631e4fbdf760e01b81525f6004820152602401610967565b6114ce81611898565b50565b606060078054610877906128f7565b81816114fa825f908152600b602052604090205460ff1690565b611520576040516307045dd960e01b815230600482015260248101839052604401610967565b5f828152600a6020526040902054811461155d57604051631081e84160e21b81523060048201526024810183905260448101829052606401610967565b6113e0868686610b0c565b6040805180820182525f80825260606020830152825160018082528185019094529192909190816020015b61159b6120be565b8152602001906001900390816115935790505060408051610100810182525f8082526020820152919250810160078152600160208201526040015f81526020015f81526020015f81526020016040518060400160405280600a81526020016932bc383932b9b9b4b7b760b11b815250815250815f8151811061161f5761161f6128e3565b60200260200101819052506040518060400160405280600181526020018281525091505090565b8281611660825f908152600b602052604090205460ff1690565b611686576040516307045dd960e01b815230600482015260248101839052604401610967565b5f828152600a602052604090205481146116c357604051631081e84160e21b81523060048201526024810183905260448101829052606401610967565b6116cf87878787611254565b50505050505050565b5f6001600160e01b0319821663075ad2d560e51b148061170857506001600160e01b03198216635a2d1e0760e11b145b8061171b57506001600160e01b03198216155b8061173657506001600160e01b0319821663f44c3bf760e01b145b80610831575061083182611add565b5f818152600260205260408120546001600160a01b03168061083157604051637e27328960e01b815260048101849052602401610967565b610a9e8383836001611b2c565b6001600160a01b0382166117b357604051633250574960e11b81525f6004820152602401610967565b5f6117bf838333611c30565b9050836001600160a01b0316816001600160a01b031614610a08576040516364283d7b60e01b81526001600160a01b0380861660048301526024820184905282166044820152606401610967565b5f6118206006546001600160a01b031690565b6001600160a01b0316336001600160a01b03161480610831575050507f00000000000000000000000000000000000000000000000000000000000000006001600160a01b0316331490565b6006546001600160a01b03163314610dcb5760405163118cdaa760e01b8152336004820152602401610967565b600680546001600160a01b038381166001600160a01b0319831681179093556040519116919082907f8be0079c531659141344cd1fd0a4f28419497f9722a3daafe3b4186f6b6457e0905f90a35050565b600d546040805160018082528183019092525f9291602080830190803683375050505f828152600960209081526040909120825161192d9391929190910190612075565b50600d8054905f61193d8361292f565b91905055506112228582611d22565b60605f61195883611d3b565b60010190505f816001600160401b038111156119765761197661228d565b6040519080825280601f01601f1916602001820160405280156119a0576020820181803683370190505b5090508181016020015b5f19016f181899199a1a9b1b9c1cb0b131b232b360811b600a86061a8153600a85049450846119aa57509392505050565b6001600160a01b038216611a0d57604051630b61174360e31b81526001600160a01b0383166004820152602401610967565b6001600160a01b038381165f81815260056020908152604080832094871680845294825291829020805460ff191686151590811790915591519182527f17307eab39ab6107e8899845ad3d59bd9653f200f220920489ca2b5937696c31910160405180910390a3505050565b611a84848484610a0e565b610a083385858585611e12565b6060604051806060016040528060268152602001612b9860269139905090565b5f611ac46006546001600160a01b031690565b6001600160a01b0316336001600160a01b031614905090565b5f6001600160e01b031982166380ac58cd60e01b1480611b0d57506001600160e01b03198216635b5e139f60e01b145b8061083157506301ffc9a760e01b6001600160e01b0319831614610831565b8080611b4057506001600160a01b03821615155b15611c01575f611b4f84611745565b90506001600160a01b03831615801590611b7b5750826001600160a01b0316816001600160a01b031614155b8015611b8e5750611b8c8184611467565b155b15611bb75760405163a9fbf51f60e01b81526001600160a01b0384166004820152602401610967565b8115611bff5783856001600160a01b0316826001600160a01b03167f8c5be1e5ebec7d5bd14f71427d1e84f3dd0314c0f7b2291e5b200ac8c7c3b92560405160405180910390a45b505b50505f90815260046020526040902080546001600160a01b0319166001600160a01b0392909216919091179055565b5f828152600260205260408120546001600160a01b0390811690831615611c5c57611c5c818486611f38565b6001600160a01b03811615611c9657611c775f855f80611b2c565b6001600160a01b0381165f90815260036020526040902080545f190190555b6001600160a01b03851615611cc4576001600160a01b0385165f908152600360205260409020805460010190555b5f8481526002602052604080822080546001600160a01b0319166001600160a01b0389811691821790925591518793918516917fddf252ad1be2c89b69c2b068fc378daa952ba7f163c4a11628f55a4df523b3ef91a4949350505050565b61092a828260405180602001604052805f815250611f9c565b5f8072184f03e93ff9f4daa797ed6e38ed64bf6a1f0160401b8310611d795772184f03e93ff9f4daa797ed6e38ed64bf6a1f0160401b830492506040015b6d04ee2d6d415b85acef81000000008310611da5576d04ee2d6d415b85acef8100000000830492506020015b662386f26fc100008310611dc357662386f26fc10000830492506010015b6305f5e1008310611ddb576305f5e100830492506008015b6127108310611def57612710830492506004015b60648310611e01576064830492506002015b600a83106108315760010192915050565b6001600160a01b0383163b15611f3157604051630a85bd0160e11b81526001600160a01b0384169063150b7a0290611e54908890889087908790600401612b4a565b6020604051808303815f875af1925050508015611e8e575060408051601f3d908101601f19168201909252611e8b91810190612b7c565b60015b611ef5573d808015611ebb576040519150601f19603f3d011682016040523d82523d5f602084013e611ec0565b606091505b5080515f03611eed57604051633250574960e11b81526001600160a01b0385166004820152602401610967565b805181602001fd5b6001600160e01b03198116630a85bd0160e11b146113e057604051633250574960e11b81526001600160a01b0385166004820152602401610967565b5050505050565b611f43838383611fb3565b610a9e576001600160a01b038316611f7157604051637e27328960e01b815260048101829052602401610967565b60405163177e802f60e01b81526001600160a01b038316600482015260248101829052604401610967565b611fa68383612014565b610a9e335f858585611e12565b5f6001600160a01b038316158015906112225750826001600160a01b0316846001600160a01b03161480611fec5750611fec8484611467565b806112225750505f908152600460205260409020546001600160a01b03908116911614919050565b6001600160a01b03821661203d57604051633250574960e11b81525f6004820152602401610967565b5f61204983835f611c30565b90506001600160a01b03811615610a9e576040516339e3563760e11b81525f6004820152602401610967565b828054828255905f5260205f209081019282156120ae579160200282015b828111156120ae578251825591602001919060010190612093565b506120ba92915061211e565b5090565b6040518061010001604052805f81526020015f81526020015f60138111156120e8576120e8612772565b81526020015f81526020015f600181111561210557612105612772565b81526020015f81526020015f8152602001606081525090565b5b808211156120ba575f815560010161211f565b6001600160e01b0319811681146114ce575f80fd5b5f60208284031215612157575f80fd5b813561122581612132565b5f60208284031215612172575f80fd5b5035919050565b5f5b8381101561219357818101518382015260200161217b565b50505f910152565b5f81518084526121b2816020860160208601612179565b601f01601f19169290920160200192915050565b602081525f611225602083018461219b565b80356001600160a01b03811681146121ee575f80fd5b919050565b5f8060408385031215612204575f80fd5b61220d836121d8565b946020939093013593505050565b803580151581146121ee575f80fd5b5f806040838503121561223b575f80fd5b8235915061224b6020840161221b565b90509250929050565b5f805f60608486031215612266575f80fd5b61226f846121d8565b925061227d602085016121d8565b9150604084013590509250925092565b634e487b7160e01b5f52604160045260245ffd5b604051601f8201601f191681016001600160401b03811182821017156122c9576122c961228d565b604052919050565b803560ff811681146121ee575f80fd5b5f602082840312156122f1575f80fd5b604051602081018181106001600160401b03821117156123135761231361228d565b604052905080612322836122d1565b905292915050565b5f6020828403121561233a575f80fd5b61122583836122e1565b602080825282518282018190525f9190848201906040850190845b8181101561237b5783518352928401929184019160010161235f565b50909695505050505050565b5f6001600160401b0382111561239f5761239f61228d565b5060051b60200190565b5f82601f8301126123b8575f80fd5b813560206123cd6123c883612387565b6122a1565b8083825260208201915060208460051b8701019350868411156123ee575f80fd5b602086015b8481101561240a57803583529183019183016123f3565b509695505050505050565b5f8060408385031215612426575f80fd5b8235915060208301356001600160401b03811115612442575f80fd5b61244e858286016123a9565b9150509250929050565b5f8060408385031215612469575f80fd5b50508035926020909101359150565b5f60208284031215612488575f80fd5b611225826121d8565b5f8083601f8401126124a1575f80fd5b5081356001600160401b038111156124b7575f80fd5b6020830191508360208285010111156124ce575f80fd5b9250929050565b5f805f80606085870312156124e8575f80fd5b6124f1856121d8565b935060208501356001600160401b0381111561250b575f80fd5b61251787828801612491565b9598909750949560400135949350505050565b5f806040838503121561253b575f80fd5b8235915061224b84602085016122e1565b5f806040838503121561255d575f80fd5b8235915061224b602084016122d1565b5f805f6060848603121561257f575f80fd5b505081359360208301359350604090920135919050565b5f80604083850312156125a7575f80fd5b6125b0836121d8565b915061224b6020840161221b565b5f602082840312156125ce575f80fd5b81356001600160401b038111156125e3575f80fd5b610f1f848285016123a9565b5f805f60408486031215612601575f80fd5b61260a846121d8565b925060208401356001600160401b03811115612624575f80fd5b61263086828701612491565b9497909650939450505050565b5f82601f83011261264c575f80fd5b81356001600160401b038111156126655761266561228d565b612678601f8201601f19166020016122a1565b81815284602083860101111561268c575f80fd5b816020850160208301375f918101602001919091529392505050565b5f805f80608085870312156126bb575f80fd5b6126c4856121d8565b93506126d2602086016121d8565b92506040850135915060608501356001600160401b038111156126f3575f80fd5b6126ff8782880161263d565b91505092959194509250565b5f805f806080858703121561271e575f80fd5b612727856121d8565b9350612735602086016121d8565b93969395505050506040820135916060013590565b5f806040838503121561275b575f80fd5b612764836121d8565b915061224b602084016121d8565b634e487b7160e01b5f52602160045260245ffd5b6002811061279657612796612772565b9052565b5f602080835260608084018551838601528286015160408060408801528282518085526080945060808901915060808160051b8a010187850194505f5b8281101561286a57607f198b83030184528551610100815184528a8201518b850152868201516014811061280d5761280d612772565b84880152818a01518a850152888201516128298a860182612786565b5060a0828101519085015260c0808301519085015260e0918201519184018190526128568185018361219b565b978b0197958b0195935050506001016127d7565b509a9950505050505050505050565b5f805f805f60a0868803121561288d575f80fd5b612896866121d8565b94506128a4602087016121d8565b93506040860135925060608601356001600160401b038111156128c5575f80fd5b6128d18882890161263d565b95989497509295608001359392505050565b634e487b7160e01b5f52603260045260245ffd5b600181811c9082168061290b57607f821691505b60208210810361292957634e487b7160e01b5f52602260045260245ffd5b50919050565b5f6001820161294c57634e487b7160e01b5f52601160045260245ffd5b5060010190565b81835281816020850137505f828201602090810191909152601f909101601f19169091010190565b6001600160a01b038681168252851660208201526080604082018190525f906129a79083018587612953565b90508260608301529695505050505050565b5f60208083850312156129ca575f80fd5b82516001600160401b038111156129df575f80fd5b8301601f810185136129ef575f80fd5b80516129fd6123c882612387565b81815260059190911b82018301908381019087831115612a1b575f80fd5b928401925b82841015612a3957835182529284019290840190612a20565b979650505050505050565b7f68747470733a2f2f616976617461722e33766c2e63612f6572633732312f414981526b56415441522f696d6167652f60a01b60208201525f8251612a9081602c850160208701612179565b632e73766760e01b602c939091019283015250603001919050565b6001600160a01b038581168252841660208201526060604082018190525f90612ad79083018486612953565b9695505050505050565b5f60208284031215612af1575f80fd5b5051919050565b5f8351612b09818460208801612179565b65746f6b656e2f60d01b9083019081528351612b2c816006840160208801612179565b64173539b7b760d91b60069290910191820152600b01949350505050565b6001600160a01b03858116825284166020820152604081018390526080606082018190525f90612ad79083018461219b565b5f60208284031215612b8c575f80fd5b81516112258161213256fe68747470733a2f2f616976617461722e33766c2e63612f6572633732312f414956415441522f68747470733a2f2f616976617461722e33766c2e63612f6572633732312f414956415441522f736368656d612e6a736f6ea2646970667358221220e1fcf147056713465d548b5e51f4c81f72ede6e7cb03a414ddfe336fa102309b64736f6c63430008170033","linkReferences":{}},"methodIdentifiers":{"agent()":"f5ff5c76","agenticUpdate(uint256,uint8)":"96fc874b","approve(address,uint256)":"095ea7b3","balanceOf(address)":"70a08231","frozen(uint256)":"e9ac0440","getApproved(uint256)":"081812fc","getFreezeNonce(uint256)":"76b90b94","getScopeName()":"f44c3bf7","imageURI(uint256)":"8f742d16","isApprovedForAll(address,address)":"e985e9c5","loadExpression(uint256)":"048b88ba","loadMetadata(uint256)":"31eb76da","loadPackedMetadata(uint256)":"4decc687","loadPackedMetadataSlot(uint256,uint256)":"5cf5944d","locked(uint256)":"b45a3c0e","mint(address,bytes)":"b510391f","mintBatch(address,bytes,uint256)":"8146725d","name()":"06fdde03","owner()":"8da5cb5b","ownerOf(uint256)":"6352211e","packMetadata((uint8))":"47f1d69f","renounceOwnership()":"715018a6","safeTransferFrom(address,address,uint256)":"42842e0e","safeTransferFrom(address,address,uint256,bytes)":"b88d4fde","safeTransferFromWithFreezeNonce(address,address,uint256,bytes,uint256)":"fc361d12","safeTransferFromWithFreezeNonce(address,address,uint256,uint256)":"f4a586d0","schema()":"f8895cc8","schemaURI()":"58e23bac","setAgent(address)":"bcf685ed","setApprovalForAll(address,bool)":"a22cb465","setFrozen(uint256,bool)":"6b88ddaf","setLocked(uint256,bool)":"0a3cc989","setPermissions(address,uint256)":"e19267ed","storeExpression(uint256,uint8)":"b713dbbf","storeMetadata(uint256,(uint8))":"836a5b7d","storePackedMetadata(uint256,uint256[])":"538cae22","storePackedMetadataSlot(uint256,uint256,uint256)":"99e39025","supportsInterface(bytes4)":"01ffc9a7","symbol()":"95d89b41","tokenURI(uint256)":"c87b56dd","transferFrom(address,address,uint256)":"23b872dd","transferFromWithFreezeNonce(address,address,uint256,uint256)":"cd56d2a3","transferOwnership(address)":"f2fde38b","unpackMetadata(uint256[])":"a75573b8"},"id":55}