{"abi":[{"type":"constructor","inputs":[{"name":"owner_","type":"address","internalType":"address"},{"name":"assignerDelegate_","type":"address","internalType":"address"}],"stateMutability":"nonpayable"},{"type":"function","name":"CONTRACT_UPGRADE_TIMELOCK","inputs":[],"outputs":[{"name":"","type":"uint256","internalType":"uint256"}],"stateMutability":"view"},{"type":"function","name":"FEE_CHANGE_TIMELOCK","inputs":[],"outputs":[{"name":"","type":"uint256","internalType":"uint256"}],"stateMutability":"view"},{"type":"function","name":"acceptScopeTransfer","inputs":[{"name":"scopeName","type":"string","internalType":"string"}],"outputs":[],"stateMutability":"nonpayable"},{"type":"function","name":"addBanker","inputs":[{"name":"scopeName","type":"string","internalType":"string"},{"name":"addr","type":"address","internalType":"address"}],"outputs":[],"stateMutability":"nonpayable"},{"type":"function","name":"addOperator","inputs":[{"name":"scopeName","type":"string","internalType":"string"},{"name":"op","type":"address","internalType":"address"}],"outputs":[],"stateMutability":"nonpayable"},{"type":"function","name":"addProtocolBanker","inputs":[{"name":"addr","type":"address","internalType":"address"}],"outputs":[],"stateMutability":"nonpayable"},{"type":"function","name":"addWhitelist","inputs":[{"name":"scopeName","type":"string","internalType":"string"},{"name":"addr","type":"address","internalType":"address"}],"outputs":[],"stateMutability":"nonpayable"},{"type":"function","name":"applyTransfer","inputs":[{"name":"from","type":"address","internalType":"address"},{"name":"to","type":"address","internalType":"address"},{"name":"tokenId","type":"uint256","internalType":"uint256"}],"outputs":[],"stateMutability":"nonpayable"},{"type":"function","name":"assign","inputs":[{"name":"fragment","type":"address","internalType":"address"},{"name":"fragmentTokenId","type":"uint256","internalType":"uint256"},{"name":"target","type":"address","internalType":"address"},{"name":"targetTokenId","type":"uint256","internalType":"uint256"}],"outputs":[],"stateMutability":"payable"},{"type":"function","name":"assign","inputs":[{"name":"fragment","type":"address","internalType":"address"},{"name":"fragmentTokenId","type":"uint256","internalType":"uint256"},{"name":"target","type":"address","internalType":"address"},{"name":"targetTokenId","type":"uint256","internalType":"uint256"},{"name":"targetMetadataId","type":"uint256","internalType":"uint256"}],"outputs":[],"stateMutability":"payable"},{"type":"function","name":"assignBatch","inputs":[{"name":"fragments","type":"address[]","internalType":"address[]"},{"name":"tokenIds","type":"uint256[]","internalType":"uint256[]"},{"name":"target","type":"address","internalType":"address"},{"name":"targetTokenId","type":"uint256","internalType":"uint256"}],"outputs":[],"stateMutability":"payable"},{"type":"function","name":"assignBatch","inputs":[{"name":"fragments","type":"address[]","internalType":"address[]"},{"name":"tokenIds","type":"uint256[]","internalType":"uint256[]"},{"name":"target","type":"address","internalType":"address"},{"name":"targetTokenId","type":"uint256","internalType":"uint256"},{"name":"targetMetadataId","type":"uint256","internalType":"uint256"}],"outputs":[],"stateMutability":"payable"},{"type":"function","name":"balanceOf","inputs":[{"name":"scopeName","type":"string","internalType":"string"}],"outputs":[{"name":"balance","type":"uint256","internalType":"uint256"}],"stateMutability":"view"},{"type":"function","name":"balanceOfProtocol","inputs":[],"outputs":[{"name":"balance","type":"uint256","internalType":"uint256"}],"stateMutability":"view"},{"type":"function","name":"cancelScopeTransfer","inputs":[{"name":"scopeName","type":"string","internalType":"string"}],"outputs":[],"stateMutability":"nonpayable"},{"type":"function","name":"claimScope","inputs":[{"name":"scopeName","type":"string","internalType":"string"}],"outputs":[],"stateMutability":"nonpayable"},{"type":"function","name":"commitAssignerDelegate","inputs":[],"outputs":[],"stateMutability":"nonpayable"},{"type":"function","name":"commitProtocolFeeConfig","inputs":[],"outputs":[],"stateMutability":"nonpayable"},{"type":"function","name":"commitScopeFeeOverride","inputs":[{"name":"scopeName","type":"string","internalType":"string"}],"outputs":[],"stateMutability":"nonpayable"},{"type":"function","name":"getAssignFee","inputs":[{"name":"fragmentAddress","type":"address","internalType":"address"}],"outputs":[{"name":"baseFee","type":"uint256","internalType":"uint256"}],"stateMutability":"view"},{"type":"function","name":"getMintConfiguration","inputs":[{"name":"addr","type":"address","internalType":"address"}],"outputs":[{"name":"config","type":"tuple","internalType":"struct IPatchworkProtocol.MintConfig","components":[{"name":"flatFee","type":"uint256","internalType":"uint256"},{"name":"active","type":"bool","internalType":"bool"}]}],"stateMutability":"view"},{"type":"function","name":"getPatchFee","inputs":[{"name":"addr","type":"address","internalType":"address"}],"outputs":[{"name":"baseFee","type":"uint256","internalType":"uint256"}],"stateMutability":"view"},{"type":"function","name":"getProtocolFeeConfig","inputs":[],"outputs":[{"name":"config","type":"tuple","internalType":"struct IPatchworkProtocol.FeeConfig","components":[{"name":"mintBp","type":"uint256","internalType":"uint256"},{"name":"patchBp","type":"uint256","internalType":"uint256"},{"name":"assignBp","type":"uint256","internalType":"uint256"}]}],"stateMutability":"view"},{"type":"function","name":"getScopeFeeOverride","inputs":[{"name":"scopeName","type":"string","internalType":"string"}],"outputs":[{"name":"config","type":"tuple","internalType":"struct IPatchworkProtocol.FeeConfigOverride","components":[{"name":"mintBp","type":"uint256","internalType":"uint256"},{"name":"patchBp","type":"uint256","internalType":"uint256"},{"name":"assignBp","type":"uint256","internalType":"uint256"},{"name":"active","type":"bool","internalType":"bool"}]}],"stateMutability":"view"},{"type":"function","name":"getScopeOwner","inputs":[{"name":"scopeName","type":"string","internalType":"string"}],"outputs":[{"name":"owner","type":"address","internalType":"address"}],"stateMutability":"view"},{"type":"function","name":"getScopeOwnerElect","inputs":[{"name":"scopeName","type":"string","internalType":"string"}],"outputs":[{"name":"ownerElect","type":"address","internalType":"address"}],"stateMutability":"view"},{"type":"function","name":"mint","inputs":[{"name":"to","type":"address","internalType":"address"},{"name":"mintable","type":"address","internalType":"address"},{"name":"data","type":"bytes","internalType":"bytes"}],"outputs":[{"name":"tokenId","type":"uint256","internalType":"uint256"}],"stateMutability":"payable"},{"type":"function","name":"mintBatch","inputs":[{"name":"to","type":"address","internalType":"address"},{"name":"mintable","type":"address","internalType":"address"},{"name":"data","type":"bytes","internalType":"bytes"},{"name":"quantity","type":"uint256","internalType":"uint256"}],"outputs":[{"name":"tokenIds","type":"uint256[]","internalType":"uint256[]"}],"stateMutability":"payable"},{"type":"function","name":"owner","inputs":[],"outputs":[{"name":"","type":"address","internalType":"address"}],"stateMutability":"view"},{"type":"function","name":"patch","inputs":[{"name":"owner","type":"address","internalType":"address"},{"name":"originalAddress","type":"address","internalType":"address"},{"name":"originalTokenId","type":"uint256","internalType":"uint256"},{"name":"patchAddress","type":"address","internalType":"address"}],"outputs":[{"name":"tokenId","type":"uint256","internalType":"uint256"}],"stateMutability":"payable"},{"type":"function","name":"patch1155","inputs":[{"name":"to","type":"address","internalType":"address"},{"name":"originalAddress","type":"address","internalType":"address"},{"name":"originalTokenId","type":"uint256","internalType":"uint256"},{"name":"originalAccount","type":"address","internalType":"address"},{"name":"patchAddress","type":"address","internalType":"address"}],"outputs":[{"name":"tokenId","type":"uint256","internalType":"uint256"}],"stateMutability":"payable"},{"type":"function","name":"patchAccount","inputs":[{"name":"owner","type":"address","internalType":"address"},{"name":"originalAddress","type":"address","internalType":"address"},{"name":"patchAddress","type":"address","internalType":"address"}],"outputs":[{"name":"tokenId","type":"uint256","internalType":"uint256"}],"stateMutability":"payable"},{"type":"function","name":"patchBurned","inputs":[{"name":"originalAddress","type":"address","internalType":"address"},{"name":"originalTokenId","type":"uint256","internalType":"uint256"},{"name":"patchAddress","type":"address","internalType":"address"}],"outputs":[],"stateMutability":"nonpayable"},{"type":"function","name":"patchBurned1155","inputs":[{"name":"originalAddress","type":"address","internalType":"address"},{"name":"originalTokenId","type":"uint256","internalType":"uint256"},{"name":"originalAccount","type":"address","internalType":"address"},{"name":"patchAddress","type":"address","internalType":"address"}],"outputs":[],"stateMutability":"nonpayable"},{"type":"function","name":"patchBurnedAccount","inputs":[{"name":"originalAddress","type":"address","internalType":"address"},{"name":"patchAddress","type":"address","internalType":"address"}],"outputs":[],"stateMutability":"nonpayable"},{"type":"function","name":"proposeAssignerDelegate","inputs":[{"name":"addr","type":"address","internalType":"address"}],"outputs":[],"stateMutability":"nonpayable"},{"type":"function","name":"proposeProtocolFeeConfig","inputs":[{"name":"config","type":"tuple","internalType":"struct IPatchworkProtocol.FeeConfig","components":[{"name":"mintBp","type":"uint256","internalType":"uint256"},{"name":"patchBp","type":"uint256","internalType":"uint256"},{"name":"assignBp","type":"uint256","internalType":"uint256"}]}],"outputs":[],"stateMutability":"nonpayable"},{"type":"function","name":"proposeScopeFeeOverride","inputs":[{"name":"scopeName","type":"string","internalType":"string"},{"name":"config","type":"tuple","internalType":"struct IPatchworkProtocol.FeeConfigOverride","components":[{"name":"mintBp","type":"uint256","internalType":"uint256"},{"name":"patchBp","type":"uint256","internalType":"uint256"},{"name":"assignBp","type":"uint256","internalType":"uint256"},{"name":"active","type":"bool","internalType":"bool"}]}],"outputs":[],"stateMutability":"nonpayable"},{"type":"function","name":"removeBanker","inputs":[{"name":"scopeName","type":"string","internalType":"string"},{"name":"addr","type":"address","internalType":"address"}],"outputs":[],"stateMutability":"nonpayable"},{"type":"function","name":"removeOperator","inputs":[{"name":"scopeName","type":"string","internalType":"string"},{"name":"op","type":"address","internalType":"address"}],"outputs":[],"stateMutability":"nonpayable"},{"type":"function","name":"removeProtocolBanker","inputs":[{"name":"addr","type":"address","internalType":"address"}],"outputs":[],"stateMutability":"nonpayable"},{"type":"function","name":"removeWhitelist","inputs":[{"name":"scopeName","type":"string","internalType":"string"},{"name":"addr","type":"address","internalType":"address"}],"outputs":[],"stateMutability":"nonpayable"},{"type":"function","name":"renounceOwnership","inputs":[],"outputs":[],"stateMutability":"nonpayable"},{"type":"function","name":"setAssignFee","inputs":[{"name":"fragmentAddress","type":"address","internalType":"address"},{"name":"baseFee","type":"uint256","internalType":"uint256"}],"outputs":[],"stateMutability":"nonpayable"},{"type":"function","name":"setMintConfiguration","inputs":[{"name":"addr","type":"address","internalType":"address"},{"name":"config","type":"tuple","internalType":"struct IPatchworkProtocol.MintConfig","components":[{"name":"flatFee","type":"uint256","internalType":"uint256"},{"name":"active","type":"bool","internalType":"bool"}]}],"outputs":[],"stateMutability":"nonpayable"},{"type":"function","name":"setPatchFee","inputs":[{"name":"addr","type":"address","internalType":"address"},{"name":"baseFee","type":"uint256","internalType":"uint256"}],"outputs":[],"stateMutability":"nonpayable"},{"type":"function","name":"setScopeRules","inputs":[{"name":"scopeName","type":"string","internalType":"string"},{"name":"allowUserPatch","type":"bool","internalType":"bool"},{"name":"allowUserAssign","type":"bool","internalType":"bool"},{"name":"requireWhitelist","type":"bool","internalType":"bool"}],"outputs":[],"stateMutability":"nonpayable"},{"type":"function","name":"transferOwnership","inputs":[{"name":"newOwner","type":"address","internalType":"address"}],"outputs":[],"stateMutability":"nonpayable"},{"type":"function","name":"transferScopeOwnership","inputs":[{"name":"scopeName","type":"string","internalType":"string"},{"name":"newOwner","type":"address","internalType":"address"}],"outputs":[],"stateMutability":"nonpayable"},{"type":"function","name":"unassign","inputs":[{"name":"fragment","type":"address","internalType":"address"},{"name":"fragmentTokenId","type":"uint256","internalType":"uint256"},{"name":"target","type":"address","internalType":"address"},{"name":"targetTokenId","type":"uint256","internalType":"uint256"},{"name":"targetMetadataId","type":"uint256","internalType":"uint256"}],"outputs":[],"stateMutability":"nonpayable"},{"type":"function","name":"unassign","inputs":[{"name":"fragment","type":"address","internalType":"address"},{"name":"fragmentTokenId","type":"uint256","internalType":"uint256"},{"name":"target","type":"address","internalType":"address"},{"name":"targetTokenId","type":"uint256","internalType":"uint256"}],"outputs":[],"stateMutability":"nonpayable"},{"type":"function","name":"unassignMulti","inputs":[{"name":"fragment","type":"address","internalType":"address"},{"name":"fragmentTokenId","type":"uint256","internalType":"uint256"},{"name":"target","type":"address","internalType":"address"},{"name":"targetTokenId","type":"uint256","internalType":"uint256"},{"name":"targetMetadataId","type":"uint256","internalType":"uint256"}],"outputs":[],"stateMutability":"nonpayable"},{"type":"function","name":"unassignMulti","inputs":[{"name":"fragment","type":"address","internalType":"address"},{"name":"fragmentTokenId","type":"uint256","internalType":"uint256"},{"name":"target","type":"address","internalType":"address"},{"name":"targetTokenId","type":"uint256","internalType":"uint256"}],"outputs":[],"stateMutability":"nonpayable"},{"type":"function","name":"unassignSingle","inputs":[{"name":"fragment","type":"address","internalType":"address"},{"name":"fragmentTokenId","type":"uint256","internalType":"uint256"},{"name":"targetMetadataId","type":"uint256","internalType":"uint256"}],"outputs":[],"stateMutability":"nonpayable"},{"type":"function","name":"unassignSingle","inputs":[{"name":"fragment","type":"address","internalType":"address"},{"name":"fragmentTokenId","type":"uint256","internalType":"uint256"}],"outputs":[],"stateMutability":"nonpayable"},{"type":"function","name":"updateOwnershipTree","inputs":[{"name":"addr","type":"address","internalType":"address"},{"name":"tokenId","type":"uint256","internalType":"uint256"}],"outputs":[],"stateMutability":"nonpayable"},{"type":"function","name":"withdraw","inputs":[{"name":"scopeName","type":"string","internalType":"string"},{"name":"amount","type":"uint256","internalType":"uint256"}],"outputs":[],"stateMutability":"nonpayable"},{"type":"function","name":"withdrawFromProtocol","inputs":[{"name":"amount","type":"uint256","internalType":"uint256"}],"outputs":[],"stateMutability":"nonpayable"},{"type":"event","name":"AccountPatch","inputs":[{"name":"owner","type":"address","indexed":true,"internalType":"address"},{"name":"originalAddress","type":"address","indexed":false,"internalType":"address"},{"name":"patchAddress","type":"address","indexed":true,"internalType":"address"},{"name":"patchTokenId","type":"uint256","indexed":true,"internalType":"uint256"},{"name":"scopeFee","type":"uint256","indexed":false,"internalType":"uint256"},{"name":"protocolFee","type":"uint256","indexed":false,"internalType":"uint256"}],"anonymous":false},{"type":"event","name":"Assign","inputs":[{"name":"owner","type":"address","indexed":true,"internalType":"address"},{"name":"fragmentAddress","type":"address","indexed":false,"internalType":"address"},{"name":"fragmentTokenId","type":"uint256","indexed":false,"internalType":"uint256"},{"name":"targetAddress","type":"address","indexed":true,"internalType":"address"},{"name":"targetTokenId","type":"uint256","indexed":true,"internalType":"uint256"},{"name":"scopeFee","type":"uint256","indexed":false,"internalType":"uint256"},{"name":"protocolFee","type":"uint256","indexed":false,"internalType":"uint256"}],"anonymous":false},{"type":"event","name":"AssignFeeChange","inputs":[{"name":"scopeName","type":"string","indexed":false,"internalType":"string"},{"name":"addr","type":"address","indexed":true,"internalType":"address"},{"name":"fee","type":"uint256","indexed":false,"internalType":"uint256"}],"anonymous":false},{"type":"event","name":"AssignerDelegateCommit","inputs":[{"name":"addr","type":"address","indexed":true,"internalType":"address"}],"anonymous":false},{"type":"event","name":"AssignerDelegatePropose","inputs":[{"name":"addr","type":"address","indexed":true,"internalType":"address"}],"anonymous":false},{"type":"event","name":"ERC1155Patch","inputs":[{"name":"owner","type":"address","indexed":true,"internalType":"address"},{"name":"originalAddress","type":"address","indexed":false,"internalType":"address"},{"name":"originalTokenId","type":"uint256","indexed":false,"internalType":"uint256"},{"name":"originalAccount","type":"address","indexed":false,"internalType":"address"},{"name":"patchAddress","type":"address","indexed":true,"internalType":"address"},{"name":"patchTokenId","type":"uint256","indexed":true,"internalType":"uint256"},{"name":"scopeFee","type":"uint256","indexed":false,"internalType":"uint256"},{"name":"protocolFee","type":"uint256","indexed":false,"internalType":"uint256"}],"anonymous":false},{"type":"event","name":"Mint","inputs":[{"name":"actor","type":"address","indexed":true,"internalType":"address"},{"name":"scopeName","type":"string","indexed":false,"internalType":"string"},{"name":"to","type":"address","indexed":true,"internalType":"address"},{"name":"mintable","type":"address","indexed":true,"internalType":"address"},{"name":"data","type":"bytes","indexed":false,"internalType":"bytes"},{"name":"scopeFee","type":"uint256","indexed":false,"internalType":"uint256"},{"name":"protocolFee","type":"uint256","indexed":false,"internalType":"uint256"}],"anonymous":false},{"type":"event","name":"MintBatch","inputs":[{"name":"actor","type":"address","indexed":true,"internalType":"address"},{"name":"scopeName","type":"string","indexed":false,"internalType":"string"},{"name":"to","type":"address","indexed":true,"internalType":"address"},{"name":"mintable","type":"address","indexed":true,"internalType":"address"},{"name":"data","type":"bytes","indexed":false,"internalType":"bytes"},{"name":"quantity","type":"uint256","indexed":false,"internalType":"uint256"},{"name":"scopeFee","type":"uint256","indexed":false,"internalType":"uint256"},{"name":"protocolFee","type":"uint256","indexed":false,"internalType":"uint256"}],"anonymous":false},{"type":"event","name":"MintConfigure","inputs":[{"name":"scopeName","type":"string","indexed":false,"internalType":"string"},{"name":"actor","type":"address","indexed":true,"internalType":"address"},{"name":"mintable","type":"address","indexed":true,"internalType":"address"},{"name":"config","type":"tuple","indexed":false,"internalType":"struct IPatchworkProtocol.MintConfig","components":[{"name":"flatFee","type":"uint256","internalType":"uint256"},{"name":"active","type":"bool","internalType":"bool"}]}],"anonymous":false},{"type":"event","name":"OwnershipTransferred","inputs":[{"name":"previousOwner","type":"address","indexed":true,"internalType":"address"},{"name":"newOwner","type":"address","indexed":true,"internalType":"address"}],"anonymous":false},{"type":"event","name":"Patch","inputs":[{"name":"owner","type":"address","indexed":true,"internalType":"address"},{"name":"originalAddress","type":"address","indexed":false,"internalType":"address"},{"name":"originalTokenId","type":"uint256","indexed":false,"internalType":"uint256"},{"name":"patchAddress","type":"address","indexed":true,"internalType":"address"},{"name":"patchTokenId","type":"uint256","indexed":true,"internalType":"uint256"},{"name":"scopeFee","type":"uint256","indexed":false,"internalType":"uint256"},{"name":"protocolFee","type":"uint256","indexed":false,"internalType":"uint256"}],"anonymous":false},{"type":"event","name":"PatchFeeChange","inputs":[{"name":"scopeName","type":"string","indexed":false,"internalType":"string"},{"name":"addr","type":"address","indexed":true,"internalType":"address"},{"name":"fee","type":"uint256","indexed":false,"internalType":"uint256"}],"anonymous":false},{"type":"event","name":"ProtocolBankerAdd","inputs":[{"name":"actor","type":"address","indexed":true,"internalType":"address"},{"name":"banker","type":"address","indexed":true,"internalType":"address"}],"anonymous":false},{"type":"event","name":"ProtocolBankerRemove","inputs":[{"name":"actor","type":"address","indexed":true,"internalType":"address"},{"name":"banker","type":"address","indexed":true,"internalType":"address"}],"anonymous":false},{"type":"event","name":"ProtocolFeeConfigCommit","inputs":[{"name":"config","type":"tuple","indexed":false,"internalType":"struct IPatchworkProtocol.FeeConfig","components":[{"name":"mintBp","type":"uint256","internalType":"uint256"},{"name":"patchBp","type":"uint256","internalType":"uint256"},{"name":"assignBp","type":"uint256","internalType":"uint256"}]}],"anonymous":false},{"type":"event","name":"ProtocolFeeConfigPropose","inputs":[{"name":"config","type":"tuple","indexed":false,"internalType":"struct IPatchworkProtocol.FeeConfig","components":[{"name":"mintBp","type":"uint256","internalType":"uint256"},{"name":"patchBp","type":"uint256","internalType":"uint256"},{"name":"assignBp","type":"uint256","internalType":"uint256"}]}],"anonymous":false},{"type":"event","name":"ProtocolWithdraw","inputs":[{"name":"actor","type":"address","indexed":true,"internalType":"address"},{"name":"amount","type":"uint256","indexed":false,"internalType":"uint256"}],"anonymous":false},{"type":"event","name":"ScopeAddOperator","inputs":[{"name":"scopeName","type":"string","indexed":false,"internalType":"string"},{"name":"actor","type":"address","indexed":true,"internalType":"address"},{"name":"operator","type":"address","indexed":true,"internalType":"address"}],"anonymous":false},{"type":"event","name":"ScopeBankerAdd","inputs":[{"name":"scopeName","type":"string","indexed":false,"internalType":"string"},{"name":"actor","type":"address","indexed":true,"internalType":"address"},{"name":"banker","type":"address","indexed":true,"internalType":"address"}],"anonymous":false},{"type":"event","name":"ScopeBankerRemove","inputs":[{"name":"scopeName","type":"string","indexed":false,"internalType":"string"},{"name":"actor","type":"address","indexed":true,"internalType":"address"},{"name":"banker","type":"address","indexed":true,"internalType":"address"}],"anonymous":false},{"type":"event","name":"ScopeClaim","inputs":[{"name":"scopeName","type":"string","indexed":false,"internalType":"string"},{"name":"owner","type":"address","indexed":true,"internalType":"address"}],"anonymous":false},{"type":"event","name":"ScopeFeeOverrideCommit","inputs":[{"name":"scopeName","type":"string","indexed":false,"internalType":"string"},{"name":"config","type":"tuple","indexed":false,"internalType":"struct IPatchworkProtocol.FeeConfigOverride","components":[{"name":"mintBp","type":"uint256","internalType":"uint256"},{"name":"patchBp","type":"uint256","internalType":"uint256"},{"name":"assignBp","type":"uint256","internalType":"uint256"},{"name":"active","type":"bool","internalType":"bool"}]}],"anonymous":false},{"type":"event","name":"ScopeFeeOverridePropose","inputs":[{"name":"scopeName","type":"string","indexed":false,"internalType":"string"},{"name":"config","type":"tuple","indexed":false,"internalType":"struct IPatchworkProtocol.FeeConfigOverride","components":[{"name":"mintBp","type":"uint256","internalType":"uint256"},{"name":"patchBp","type":"uint256","internalType":"uint256"},{"name":"assignBp","type":"uint256","internalType":"uint256"},{"name":"active","type":"bool","internalType":"bool"}]}],"anonymous":false},{"type":"event","name":"ScopeRemoveOperator","inputs":[{"name":"scopeName","type":"string","indexed":false,"internalType":"string"},{"name":"actor","type":"address","indexed":true,"internalType":"address"},{"name":"operator","type":"address","indexed":true,"internalType":"address"}],"anonymous":false},{"type":"event","name":"ScopeRuleChange","inputs":[{"name":"scopeName","type":"string","indexed":false,"internalType":"string"},{"name":"actor","type":"address","indexed":true,"internalType":"address"},{"name":"allowUserPatch","type":"bool","indexed":false,"internalType":"bool"},{"name":"allowUserAssign","type":"bool","indexed":false,"internalType":"bool"},{"name":"requireWhitelist","type":"bool","indexed":false,"internalType":"bool"}],"anonymous":false},{"type":"event","name":"ScopeTransfer","inputs":[{"name":"scopeName","type":"string","indexed":false,"internalType":"string"},{"name":"from","type":"address","indexed":true,"internalType":"address"},{"name":"to","type":"address","indexed":true,"internalType":"address"}],"anonymous":false},{"type":"event","name":"ScopeTransferCancel","inputs":[{"name":"scopeName","type":"string","indexed":false,"internalType":"string"},{"name":"from","type":"address","indexed":true,"internalType":"address"},{"name":"to","type":"address","indexed":true,"internalType":"address"}],"anonymous":false},{"type":"event","name":"ScopeTransferElect","inputs":[{"name":"scopeName","type":"string","indexed":false,"internalType":"string"},{"name":"from","type":"address","indexed":true,"internalType":"address"},{"name":"to","type":"address","indexed":true,"internalType":"address"}],"anonymous":false},{"type":"event","name":"ScopeWhitelistAdd","inputs":[{"name":"scopeName","type":"string","indexed":false,"internalType":"string"},{"name":"actor","type":"address","indexed":true,"internalType":"address"},{"name":"addr","type":"address","indexed":true,"internalType":"address"}],"anonymous":false},{"type":"event","name":"ScopeWhitelistRemove","inputs":[{"name":"scopeName","type":"string","indexed":false,"internalType":"string"},{"name":"actor","type":"address","indexed":true,"internalType":"address"},{"name":"addr","type":"address","indexed":true,"internalType":"address"}],"anonymous":false},{"type":"event","name":"ScopeWithdraw","inputs":[{"name":"scopeName","type":"string","indexed":false,"internalType":"string"},{"name":"actor","type":"address","indexed":true,"internalType":"address"},{"name":"amount","type":"uint256","indexed":false,"internalType":"uint256"}],"anonymous":false},{"type":"event","name":"Unassign","inputs":[{"name":"owner","type":"address","indexed":true,"internalType":"address"},{"name":"fragmentAddress","type":"address","indexed":false,"internalType":"address"},{"name":"fragmentTokenId","type":"uint256","indexed":false,"internalType":"uint256"},{"name":"targetAddress","type":"address","indexed":true,"internalType":"address"},{"name":"targetTokenId","type":"uint256","indexed":true,"internalType":"uint256"}],"anonymous":false},{"type":"error","name":"AccountAlreadyPatched","inputs":[{"name":"addr","type":"address","internalType":"address"},{"name":"patchAddress","type":"address","internalType":"address"}]},{"type":"error","name":"AlreadyPatched","inputs":[{"name":"addr","type":"address","internalType":"address"},{"name":"tokenId","type":"uint256","internalType":"uint256"},{"name":"patchAddress","type":"address","internalType":"address"}]},{"type":"error","name":"BadInputLengths","inputs":[]},{"type":"error","name":"CannotLockSoulboundPatch","inputs":[{"name":"addr","type":"address","internalType":"address"}]},{"type":"error","name":"DataIntegrityError","inputs":[{"name":"addr","type":"address","internalType":"address"},{"name":"tokenId","type":"uint256","internalType":"uint256"},{"name":"addr2","type":"address","internalType":"address"},{"name":"tokenId2","type":"uint256","internalType":"uint256"}]},{"type":"error","name":"ERC1155AlreadyPatched","inputs":[{"name":"addr","type":"address","internalType":"address"},{"name":"tokenId","type":"uint256","internalType":"uint256"},{"name":"account","type":"address","internalType":"address"},{"name":"patchAddress","type":"address","internalType":"address"}]},{"type":"error","name":"FailedToSend","inputs":[]},{"type":"error","name":"FragmentAlreadyAssigned","inputs":[{"name":"addr","type":"address","internalType":"address"},{"name":"tokenId","type":"uint256","internalType":"uint256"}]},{"type":"error","name":"FragmentAlreadyRegistered","inputs":[{"name":"addr","type":"address","internalType":"address"}]},{"type":"error","name":"FragmentNotAssigned","inputs":[{"name":"addr","type":"address","internalType":"address"},{"name":"tokenId","type":"uint256","internalType":"uint256"}]},{"type":"error","name":"FragmentNotAssignedToTarget","inputs":[{"name":"addr","type":"address","internalType":"address"},{"name":"tokenId","type":"uint256","internalType":"uint256"},{"name":"targetAddress","type":"address","internalType":"address"},{"name":"targetTokenId","type":"uint256","internalType":"uint256"}]},{"type":"error","name":"FragmentRedacted","inputs":[{"name":"addr","type":"address","internalType":"address"}]},{"type":"error","name":"FragmentUnregistered","inputs":[{"name":"addr","type":"address","internalType":"address"}]},{"type":"error","name":"Frozen","inputs":[{"name":"addr","type":"address","internalType":"address"},{"name":"tokenId","type":"uint256","internalType":"uint256"}]},{"type":"error","name":"IncorrectFeeAmount","inputs":[]},{"type":"error","name":"IncorrectNonce","inputs":[{"name":"addr","type":"address","internalType":"address"},{"name":"tokenId","type":"uint256","internalType":"uint256"},{"name":"nonce","type":"uint256","internalType":"uint256"}]},{"type":"error","name":"InsufficientFunds","inputs":[]},{"type":"error","name":"InvalidFeeValue","inputs":[]},{"type":"error","name":"Locked","inputs":[{"name":"addr","type":"address","internalType":"address"},{"name":"tokenId","type":"uint256","internalType":"uint256"}]},{"type":"error","name":"MintNotActive","inputs":[]},{"type":"error","name":"MintNotAllowed","inputs":[{"name":"addr","type":"address","internalType":"address"}]},{"type":"error","name":"NoDelegateProposed","inputs":[]},{"type":"error","name":"NoProposedFeeSet","inputs":[]},{"type":"error","name":"NotAuthorized","inputs":[{"name":"addr","type":"address","internalType":"address"}]},{"type":"error","name":"NotFrozen","inputs":[{"name":"addr","type":"address","internalType":"address"},{"name":"tokenId","type":"uint256","internalType":"uint256"}]},{"type":"error","name":"NotPatchworkAssignable","inputs":[{"name":"addr","type":"address","internalType":"address"}]},{"type":"error","name":"NotWhitelisted","inputs":[{"name":"scopeName","type":"string","internalType":"string"},{"name":"addr","type":"address","internalType":"address"}]},{"type":"error","name":"OutOfIDs","inputs":[]},{"type":"error","name":"OwnableInvalidOwner","inputs":[{"name":"owner","type":"address","internalType":"address"}]},{"type":"error","name":"OwnableUnauthorizedAccount","inputs":[{"name":"account","type":"address","internalType":"address"}]},{"type":"error","name":"ReentrancyGuardReentrantCall","inputs":[]},{"type":"error","name":"RefNotFound","inputs":[{"name":"target","type":"address","internalType":"address"},{"name":"fragment","type":"address","internalType":"address"},{"name":"tokenId","type":"uint256","internalType":"uint256"}]},{"type":"error","name":"ScopeDoesNotExist","inputs":[{"name":"scopeName","type":"string","internalType":"string"}]},{"type":"error","name":"ScopeExists","inputs":[{"name":"scopeName","type":"string","internalType":"string"}]},{"type":"error","name":"ScopeTransferNotAllowed","inputs":[{"name":"to","type":"address","internalType":"address"}]},{"type":"error","name":"SelfAssignmentNotAllowed","inputs":[{"name":"addr","type":"address","internalType":"address"},{"name":"tokenId","type":"uint256","internalType":"uint256"}]},{"type":"error","name":"TimelockNotElapsed","inputs":[]},{"type":"error","name":"TransferBlockedByAssignment","inputs":[{"name":"addr","type":"address","internalType":"address"},{"name":"tokenId","type":"uint256","internalType":"uint256"}]},{"type":"error","name":"TransferNotAllowed","inputs":[{"name":"addr","type":"address","internalType":"address"},{"name":"tokenId","type":"uint256","internalType":"uint256"}]},{"type":"error","name":"UnsupportedContract","inputs":[]},{"type":"error","name":"UnsupportedOperation","inputs":[]},{"type":"error","name":"UnsupportedTokenId","inputs":[{"name":"tokenId","type":"uint256","internalType":"uint256"}]}],"bytecode":{"object":"0x608060405234801562000010575f80fd5b506040516200581b3803806200581b833981016040819052620000339162000106565b81806001600160a01b0381166200006357604051631e4fbdf760e01b81525f600482015260240160405180910390fd5b6200006e816200009b565b505060018055600f80546001600160a01b0319166001600160a01b0392909216919091179055506200013c565b5f80546001600160a01b038381166001600160a01b0319831681178455604051919092169283917f8be0079c531659141344cd1fd0a4f28419497f9722a3daafe3b4186f6b6457e09190a35050565b80516001600160a01b038116811462000101575f80fd5b919050565b5f806040838503121562000118575f80fd5b6200012383620000ea565b91506200013360208401620000ea565b90509250929050565b6156d1806200014a5f395ff3fe608060405260043610610370575f3560e01c8063683ec78e116101c8578063aaf8190d116100fd578063dad8d7911161009d578063f1ddecf91161006d578063f1ddecf9146109bd578063f2fde38b146109d0578063f6b48bfa146109ef578063fd91b49814610a03575f80fd5b8063dad8d79114610934578063dfd8f44214610960578063e71435d91461097f578063e93ce2c11461099e575f80fd5b8063c4346819116100d8578063c4346819146108ab578063c7af3781146108d7578063d62ad08a146108f6578063d7a353bf14610915575f80fd5b8063aaf8190d1461084e578063b2c050e71461086d578063bb75af4f1461088c575f80fd5b80638a9246401161016857806391c75c331161014357806391c75c33146107d15780639e5ea79d146107f0578063a03f969014610810578063a65285921461082f575f80fd5b80638a924640146107835780638d0936ca146107a25780638da5cb5b146107b5575f80fd5b8063792bbea7116101a3578063792bbea7146106e45780637978bd011461070357806385672ef514610739578063895526471461074c575f80fd5b8063683ec78e1461069e5780636a72780f146106bd578063715018a6146106d0575f80fd5b80632c24e9ab116102a957806338948ae0116102495780634e1b867c116102195780634e1b867c1461062257806350545d2f146106415780635f9acbe214610660578063670c2c311461067f575f80fd5b806338948ae0146105b15780633cc32ea9146105c557806342c5cc4f146105e457806346d642dc14610603575f80fd5b806330b39a621161028457806330b39a6214610535578063335eb2cd1461055457806333f5ebf61461057357806335ee5f8714610592575f80fd5b80632c24e9ab146104e45780632f1dd49f146105035780632fcfd57114610522575f80fd5b8063157e2e3711610314578063259d234b116102ef578063259d234b1461049057806328605222146104af5780632881ac36146104c55780632c14d552146104af575f80fd5b8063157e2e371461044a5780631ff232951461045d578063201368f214610471575f80fd5b806309d01a221161034f57806309d01a22146103ce5780630dab835f146103ed57806310754fa91461040c5780631085bc7f1461042b575f80fd5b8062a3b9c1146103745780630199abce1461039a5780630841d171146103bb575b5f80fd5b610387610382366004614496565b610a22565b6040519081526020015b60405180910390f35b3480156103a5575f80fd5b506103b96103b4366004614523565b610cec565b005b6103876103c9366004614575565b610d9c565b3480156103d9575f80fd5b506103b96103e836600461462a565b611099565b3480156103f8575f80fd5b506103b96104073660046146a5565b6111bf565b348015610417575f80fd5b506103b9610426366004614523565b611210565b348015610436575f80fd5b506103b96104453660046146c0565b6112dc565b6103b961045836600461473e565b61138c565b348015610468575f80fd5b506103b96113f0565b34801561047c575f80fd5b506103b961048b3660046147c3565b6114b2565b34801561049b575f80fd5b506103b96104aa3660046147ed565b6117a9565b3480156104ba575f80fd5b506103876212750081565b3480156104d0575f80fd5b506103b96104df3660046147c3565b611802565b3480156104ef575f80fd5b506103b96104fe3660046146c0565b611919565b34801561050e575f80fd5b506103b961051d3660046148b3565b6119f4565b610387610530366004614901565b611a69565b348015610540575f80fd5b506103b961054f36600461493e565b611d0c565b34801561055f575f80fd5b506103b961056e366004614523565b611e5d565b34801561057e575f80fd5b506103b961058d36600461497f565b611efc565b34801561059d575f80fd5b506103876105ac3660046149ab565b611f7f565b3480156105bc575f80fd5b506103b9611f95565b3480156105d0575f80fd5b506103b96105df3660046146a5565b61205d565b3480156105ef575f80fd5b506103876105fe3660046146a5565b61210e565b34801561060e575f80fd5b506103b961061d3660046149dc565b6121d2565b34801561062d575f80fd5b506103b961063c3660046147ed565b61260e565b34801561064c575f80fd5b506103b961065b366004614523565b612667565b34801561066b575f80fd5b506103b961067a366004614a1a565b612709565b34801561068a575f80fd5b506103b9610699366004614a5f565b612780565b3480156106a9575f80fd5b506103b96106b8366004614523565b6127dc565b6103b96106cb366004614a91565b61287b565b3480156106db575f80fd5b506103b96128d9565b3480156106ef575f80fd5b506103b96106fe3660046147c3565b6128ec565b34801561070e575f80fd5b50610717612946565b6040805182518152602080840151908201529181015190820152606001610391565b6103b9610747366004614ad6565b61298c565b348015610757575f80fd5b5061076b6107663660046146c0565b6129f3565b6040516001600160a01b039091168152602001610391565b34801561078e575f80fd5b506103b961079d366004614b64565b612a28565b6103b96107b03660046147ed565b612b5a565b3480156107c0575f80fd5b505f546001600160a01b031661076b565b3480156107dc575f80fd5b5061076b6107eb3660046146c0565b612bb3565b6108036107fe366004614b7b565b612bea565b6040516103919190614be2565b34801561081b575f80fd5b506103b961082a366004614c25565b612d0e565b34801561083a575f80fd5b506103b96108493660046146c0565b612e6a565b348015610859575f80fd5b506103b9610868366004614cca565b612f20565b348015610878575f80fd5b506103b96108873660046148b3565b613054565b348015610897575f80fd5b506103b96108a6366004614a91565b6130bf565b3480156108b6575f80fd5b506108ca6108c53660046149ab565b613116565b6040516103919190614d23565b3480156108e2575f80fd5b506103876108f13660046146a5565b613197565b348015610901575f80fd5b506103b9610910366004614d50565b613256565b348015610920575f80fd5b506103b961092f3660046149ab565b613326565b34801561093f575f80fd5b5061095361094e3660046146a5565b61347f565b6040516103919190614db9565b34801561096b575f80fd5b506103b961097a366004614a91565b61356b565b34801561098a575f80fd5b506103b9610999366004614dd2565b6135c2565b3480156109a9575f80fd5b506103b96109b83660046146a5565b61364d565b6103876109cb366004614e06565b6136a1565b3480156109db575f80fd5b506103b96109ea3660046146a5565b6137c4565b3480156109fa575f80fd5b50600554610387565b348015610a0e575f80fd5b506103b9610a1d3660046147c3565b6137fe565b6040516301ffc9a760e01b81525f906001600160a01b038316906301ffc9a790610a5790631682d4ff60e31b90600401614e66565b602060405180830381865afa158015610a72573d5f803e3d5ffd5b505050506040513d601f19601f82011682018060405250810190610a969190614e7b565b610ab3576040516312f140a360e01b815260040160405180910390fd5b815f610abe82613907565b90505f610aca82613a40565b9050610ad7828287613a8d565b80546001600160a01b0316331480610aff5750335f90815260028201602052604090205460ff165b610b37576001810154600160a01b900460ff16610b37575b604051634a0bfec160e01b81523360048201526024015b60405180910390fd5b5f80610b44848489613ae4565b6040516001600160601b031960608d811b82166020840152603483018d90528b901b16605482015291935091505f9060680160408051601f1981840301815291815281516020928301205f818152600490935291205490915060ff1615610bd8576040516316f7184560e21b81526001600160a01b03808c166004830152602482018b905289166044820152606401610b2e565b5f81815260046020818152604092839020805460ff19166001179055825180840184526001600160a01b038e811682529181018d8152935163041777cf60e31b81528f831693810193909352518116602483015291516044820152908716906320bbbe78906064016020604051808303815f875af1158015610c5c573d5f803e3d5ffd5b505050506040513d601f19601f82011682018060405250810190610c809190614e96565b604080516001600160a01b038d81168252602082018d9052918101869052606081018590529198508891818b16918e16907f8d135fd9084dfb793ae13802859f65276373a644672820117b6b085ee8fe8ee79060800160405180910390a4505050505050949350505050565b5f610d2b84848080601f0160208091040260200160405190810160405280939291908181526020018383808284375f92019190915250613a4092505050565b9050610d3681613bca565b6001600160a01b0382165f81815260038301602052604090819020805460ff191660011790555133907f09cd63d91cb30e03bca19bb825193acfa884f9b11592beca2f561cdcac8a3bf790610d8e9088908890614ed5565b60405180910390a350505050565b6040516301ffc9a760e01b81525f906001600160a01b038316906301ffc9a790610dd1906304a48efb60e11b90600401614e66565b602060405180830381865afa158015610dec573d5f803e3d5ffd5b505050506040513d601f19601f82011682018060405250810190610e109190614e7b565b610e2d576040516312f140a360e01b815260040160405180910390fd5b815f610e3882613907565b90505f610e4482613a40565b9050610e51828287613a8d565b80546001600160a01b0316331480610e795750335f90815260028201602052604090205460ff165b610eab576001810154600160a01b900460ff16610eab57604051634a0bfec160e01b8152336004820152602401610b2e565b5f80610eb8848489613ae4565b915091505f8a8a8a8a604051602001610ed49493929190614ee8565b60408051601f1981840301815291815281516020928301205f818152600490935291205490915060ff1615610f3e57604051630cd1970560e01b81526001600160a01b03808d166004830152602482018c9052808b16604483015289166064820152608401610b2e565b600160045f8381526020019081526020015f205f6101000a81548160ff021916908315150217905550856001600160a01b03166309491df68d60405180606001604052808f6001600160a01b031681526020018e81526020018d6001600160a01b03168152506040518363ffffffff1660e01b8152600401610ff49291906001600160a01b0392831681528151831660208083019190915282015160408083019190915290910151909116606082015260800190565b6020604051808303815f875af1158015611010573d5f803e3d5ffd5b505050506040513d601f19601f820116820180604052508101906110349190614e96565b965086886001600160a01b03168d6001600160a01b03167fcf5c9727c859ab93ac5f21d1bdbcd3ebe5353c9b4feb61b314b6b3aec82103e78e8e8e8989604051611082959493929190614f1b565b60405180910390a450505050505095945050505050565b6040516301ffc9a760e01b81526001600160a01b038316906301ffc9a7906110cc90631a2b25a160e11b90600401614e66565b602060405180830381865afa1580156110e7573d5f803e3d5ffd5b505050506040513d601f19601f8201168201806040525081019061110b9190614e7b565b611128576040516312f140a360e01b815260040160405180910390fd5b5f61113283613907565b90505f61113e82613a40565b905061114b828286613a8d565b61115481613bca565b6001600160a01b0384165f81815260048301602090815260409182902086518155908601516001909101805460ff19169115159190911790555133907fc04dd3f13cc2b08f4dbc3987c1c15025cda32aa0573338f399d909022018777b90610d8e9086908890614f9c565b6111c7613c15565b6001600160a01b0381165f81815260066020526040808220805460ff191690555133917fbfcc34431edd3cb9825f2e0b5f249f3a1b80166e2700f3510b5d5fc26b44d96f91a350565b5f61124f84848080601f0160208091040260200160405190810160405280939291908181526020018383808284375f92019190915250613a4092505050565b905061125a81613c41565b6001600160a01b0382166112835760405163c887486d60e01b81525f6004820152602401610b2e565b6001810180546001600160a01b0319166001600160a01b038481169182179092558254604051919216907f05dbd93d61e1dc571f26a9388896539590983bdefe679db8d53e17110ea74f0390610d8e9088908890614ed5565b5f61131b83838080601f0160208091040260200160405190810160405280939291908181526020018383808284375f92019190915250613a4092505050565b905061132681613c41565b600181015481546040516001600160a01b0392831692909116907f14790b7a5fcd7341d1a923104044b927f1d8d0a0b7e84b34c15d1cd7f3d8e6ba9061136f9087908790614ed5565b60405180910390a360010180546001600160a01b03191690555050565b600f546040516113e7916001600160a01b0316906113b890899089908990899089908990602401615040565b60408051601f198184030181529190526020810180516001600160e01b031663157e2e3760e01b179052613c6d565b50505050505050565b5f546001600160a01b031633148015906114195750335f9081526006602052604090205460ff16155b1561143957604051634a0bfec160e01b8152336004820152602401610b2e565b5f61145160405180602001604052805f815250613cec565b5080516007819055602080830151600881905560408085015160098190558151948552928401919091528201529091507fc7fe3ef65ae0fe496b175a688464aba2de11f97be8a41047ddda51967e7d1719906060015b60405180910390a150565b6040516301ffc9a760e01b81526001600160a01b038316906301ffc9a7906114e59063209fddd160e21b90600401614e66565b602060405180830381865afa158015611500573d5f803e3d5ffd5b505050506040513d601f19601f820116820180604052508101906115249190614e7b565b1561161f5760405163056bb56b60e01b8152600481018290525f9081906001600160a01b0385169063056bb56b906024015f60405180830381865afa15801561156f573d5f803e3d5ffd5b505050506040513d5f823e601f3d908101601f19168201604052611596919081019061510e565b915091505f5b825181101561161b575f6001600160a01b03168382815181106115c1576115c16151cc565b60200260200101516001600160a01b031614611613576116138382815181106115ec576115ec6151cc565b6020026020010151838381518110611606576116066151cc565b60200260200101516114b2565b60010161159c565b5050505b6040516301ffc9a760e01b81526001600160a01b038316906301ffc9a79061165290633f20963560e11b90600401614e66565b602060405180830381865afa15801561166d573d5f803e3d5ffd5b505050506040513d601f19601f820116820180604052508101906116919190614e7b565b156116ef5760405163e731493160e01b8152600481018290526001600160a01b0383169063e7314931906024015f604051808303815f87803b1580156116d5575f80fd5b505af11580156116e7573d5f803e3d5ffd5b505050505050565b6040516301ffc9a760e01b81526001600160a01b038316906301ffc9a79061172290631682d4ff60e31b90600401614e66565b602060405180830381865afa15801561173d573d5f803e3d5ffd5b505050506040513d601f19601f820116820180604052508101906117619190614e7b565b156117a55760405163e731493160e01b8152600481018290526001600160a01b0383169063e7314931906024015f604051808303815f87803b1580156116d5575f80fd5b5050565b600f546040516116e7916001600160a01b0316906117d39088908890889088908890602401614f1b565b60408051601f198184030181529190526020810180516001600160e01b031663259d234b60e01b179052613c6d565b6040516301ffc9a760e01b81526001600160a01b038316906301ffc9a7906118359063f44c3bf760e01b90600401614e66565b602060405180830381865afa158015611850573d5f803e3d5ffd5b505050506040513d601f19601f820116820180604052508101906118749190614e7b565b611891576040516312f140a360e01b815260040160405180910390fd5b5f61189b83613907565b90505f6118a782613a40565b90506118b4828286613a8d565b6118bd81613bca565b6001600160a01b0384165f81815260068301602052604090819020859055517f0b450eca7160ee6a4366d6308a9a8ee0c9667f6de1ee9a089a22aa07660bef749061190b90859087906151e0565b60405180910390a250505050565b5f81900361193c57604051634a0bfec160e01b8152336004820152602401610b2e565b5f6002838360405161194f929190615201565b90815260405190819003602001902080549091506001600160a01b03161561198e57828260405163a1ba105d60e01b8152600401610b2e929190614ed5565b80546001600160a01b03191633908117825560018201805460ff60b01b1916600160b01b1790556040517f1e9f069bfc6b1bf47ff4ff4b9a52d42adc349f31af6434555ba3e39753dbfcc7906119e79086908690614ed5565b60405180910390a2505050565b5f6119fe83613a40565b9050611a0981613bca565b6001600160a01b0382165f81815260088301602052604090819020805460ff191690555133907f90ba6085f25f77137c11acfdbd63bf5b4c4bc61d0195095917524fb1b39a774090611a5c908790615210565b60405180910390a3505050565b6040516301ffc9a760e01b81525f906001600160a01b038316906301ffc9a790611a9e90630f88d36b60e21b90600401614e66565b602060405180830381865afa158015611ab9573d5f803e3d5ffd5b505050506040513d601f19601f82011682018060405250810190611add9190614e7b565b611afa576040516312f140a360e01b815260040160405180910390fd5b815f611b0582613907565b90505f611b1182613a40565b9050611b1e828287613a8d565b80546001600160a01b0316331480611b465750335f90815260028201602052604090205460ff165b611b78576001810154600160a01b900460ff16611b7857604051634a0bfec160e01b8152336004820152602401610b2e565b5f80611b85848489613ae4565b6040516001600160601b031960608c811b821660208401528b901b16603482015291935091505f9060480160408051601f1981840301815291815281516020928301205f818152600490935291205490915060ff1615611c0b57604051631de7562d60e11b81526001600160a01b03808b16600483015289166024820152604401610b2e565b5f81815260046020819052604091829020805460ff191660011790559051630f88d36b60e21b81526001600160a01b03881691633e234dac91611c67918e918e91016001600160a01b0392831681529116602082015260400190565b6020604051808303815f875af1158015611c83573d5f803e3d5ffd5b505050506040513d601f19601f82011682018060405250810190611ca79190614e96565b604080516001600160a01b038c81168252602082018790529181018590529198508891818b16918d16907f6f5c0b55a71bf9ef96cf0c8cfa9dd9a9399d236eaf75f2c0438507eacf1de5da9060600160405180910390a45050505050505b9392505050565b611d14613dff565b5f611d1e83613a40565b80549091506001600160a01b03163314801590611d4c5750335f90815260088201602052604090205460ff16155b15611d6c57604051634a0bfec160e01b8152336004820152602401610b2e565b8060070154821115611d915760405163356680b760e01b815260040160405180910390fd5b81816007015f828254611da49190615236565b90915550506040515f90339084908381818185875af1925050503d805f8114611de8576040519150601f19603f3d011682016040523d82523d5f602084013e611ded565b606091505b5050905080611e0f5760405163467d86d160e01b815260040160405180910390fd5b336001600160a01b03167f8523bab17235e3ceedebf5ebd0afa4540283bc2923dd9ccfec37dfc3eb5e2b508585604051611e4a9291906151e0565b60405180910390a250506117a560018055565b5f611e9c84848080601f0160208091040260200160405190810160405280939291908181526020018383808284375f92019190915250613a4092505050565b9050611ea781613c41565b6001600160a01b0382165f81815260028301602052604090819020805460ff191690555133907f7a2d49590a46e6787ae9d600acd5c2d63b9f68e9cb431147ada2c2dafe22b88290610d8e9088908890614ed5565b80336001600160a01b03821614611f2857604051634a0bfec160e01b8152336004820152602401610b2e565b6040516001600160601b0319606085811b8216602084015284901b1660348201525f9060480160408051601f1981840301815291815281516020928301205f90815260049092529020805460ff1916905550505050565b5f80611f8a83613a40565b600701549392505050565b611f9d613c15565b600d545f03611fbf57604051631001f2a960e01b815260040160405180910390fd5b600d54611fd0906212750090615249565b421015611ff05760405163333bd2cb60e11b815260040160405180910390fd5b600e8054600f80546001600160a01b0383166001600160a01b031991821681179092556040805180820182525f8082526020909101819052600d81905591909316909355905190917f9d9d94bcf34733dba820b46d468304623b23898c83d97e22c6e028eaaa90875d91a2565b612065613c15565b6001600160a01b0381166120a157604080518082019091525f8082526020909101819052600d55600e80546001600160a01b03191690556120d8565b60408051808201909152428082526001600160a01b0383166020909201829052600d55600e80546001600160a01b03191690911790555b6040516001600160a01b038216907f9c2f47d7050eb5a1165328268426885f5bb79d7f28c13dd39ab036941bcbefc8905f90a250565b6040516301ffc9a760e01b81525f906001600160a01b038316906301ffc9a7906121439063f44c3bf760e01b90600401614e66565b602060405180830381865afa15801561215e573d5f803e3d5ffd5b505050506040513d601f19601f820116820180604052508101906121829190614e7b565b61219f576040516312f140a360e01b815260040160405180910390fd5b5f6121b16121ac84613e29565b613a40565b6001600160a01b039093165f90815260069093016020525050604090205490565b6040516301ffc9a760e01b8152339081906301ffc9a7906121fe90633f20963560e11b90600401614e66565b602060405180830381865afa158015612219573d5f803e3d5ffd5b505050506040513d601f19601f8201168201806040525081019061223d9190614e7b565b156122eb5760405162080f7160eb1b81526004810183905281905f906001600160a01b0383169063407b8800906024016040805180830381865afa158015612287573d5f803e3d5ffd5b505050506040513d601f19601f820116820180604052508101906122ab919061525c565b5090506001600160a01b038116156122e857604051633417294760e01b81526001600160a01b038416600482015260248101859052604401610b2e565b50505b6040516301ffc9a760e01b81526001600160a01b038216906301ffc9a79061231e90631682d4ff60e31b90600401614e66565b602060405180830381865afa158015612339573d5f803e3d5ffd5b505050506040513d601f19601f8201168201806040525081019061235d9190614e7b565b1561238d576040516306c9ec1b60e51b81526001600160a01b038216600482015260248101839052604401610b2e565b6040516301ffc9a760e01b81526001600160a01b038216906301ffc9a7906123c09063075ad2d560e51b90600401614e66565b602060405180830381865afa1580156123db573d5f803e3d5ffd5b505050506040513d601f19601f820116820180604052508101906123ff9190614e7b565b1561249b57604051635a2d1e0760e11b8152600481018390526001600160a01b0382169063b45a3c0e90602401602060405180830381865afa158015612447573d5f803e3d5ffd5b505050506040513d601f19601f8201168201806040525081019061246b9190614e7b565b1561249b576040516313e3d91960e31b81526001600160a01b038216600482015260248101839052604401610b2e565b6040516301ffc9a760e01b81526001600160a01b038216906301ffc9a7906124ce9063209fddd160e21b90600401614e66565b602060405180830381865afa1580156124e9573d5f803e3d5ffd5b505050506040513d601f19601f8201168201806040525081019061250d9190614e7b565b156126085760405163056bb56b60e01b8152600481018390525f9081906001600160a01b0384169063056bb56b906024015f60405180830381865afa158015612558573d5f803e3d5ffd5b505050506040513d5f823e601f3d908101601f1916820160405261257f919081019061510e565b915091505f5b82518110156113e7575f6001600160a01b03168382815181106125aa576125aa6151cc565b60200260200101516001600160a01b031614612600576126008382815181106125d5576125d56151cc565b602002602001015188888585815181106125f1576125f16151cc565b6020026020010151888a613f37565b600101612585565b50505050565b600f546040516116e7916001600160a01b0316906126389088908890889088908890602401614f1b565b60408051601f198184030181529190526020810180516001600160e01b0316631386e19f60e21b179052613c6d565b5f6126a684848080601f0160208091040260200160405190810160405280939291908181526020018383808284375f92019190915250613a4092505050565b90506126b181613c41565b6001600160a01b0382165f81815260028301602052604090819020805460ff191660011790555133907fd56b2cff2be8c512b80ff75ac3376fc65dd5d3e99a6a460a2aaf22fab6b6c6cb90610d8e9088908890614ed5565b80336001600160a01b0382161461273557604051634a0bfec160e01b8152336004820152602401610b2e565b5f8585858560405160200161274d9493929190614ee8565b60408051601f1981840301815291815281516020928301205f90815260049092529020805460ff19169055505050505050565b600f546040516001600160a01b038581166024830152604482018590526064820184905261260892169060840160408051601f198184030181529190526020810180516001600160e01b031663670c2c3160e01b179052613c6d565b5f61281b84848080601f0160208091040260200160405190810160405280939291908181526020018383808284375f92019190915250613a4092505050565b905061282681613bca565b6001600160a01b0382165f81815260038301602052604090819020805460ff191690555133907fa3a448e70cb23f638709b04f467e0997e2b19ccf42a33df5ddc91b116ad24a0790610d8e9088908890614ed5565b600f546040516128d2916001600160a01b0316906128a3908790879087908790602401615288565b60408051601f198184030181529190526020810180516001600160e01b0316636a72780f60e01b179052613c6d565b5050505050565b6128e1613c15565b6128ea5f614267565b565b600f546040516001600160a01b0384811660248301526044820184905261294192169060640160408051601f198184030181529190526020810180516001600160e01b031663792bbea760e01b179052613c6d565b505050565b61296760405180606001604052805f81526020015f81526020015f81525090565b5060408051606081018252600754815260085460208201526009549181019190915290565b600f546040516129e9916001600160a01b0316906129ba908a908a908a908a908a908a908a906024016152b2565b60408051601f198184030181529190526020810180516001600160e01b03166385672ef560e01b179052613c6d565b5050505050505050565b5f60028383604051612a06929190615201565b908152604051908190036020019020546001600160a01b031690505b92915050565b612a30613dff565b5f546001600160a01b03163314801590612a595750335f9081526006602052604090205460ff16155b15612a7957604051634a0bfec160e01b8152336004820152602401610b2e565b600554811115612a9c5760405163356680b760e01b815260040160405180910390fd5b8060055f828254612aad9190615236565b90915550506040515f90339083908381818185875af1925050503d805f8114612af1576040519150601f19603f3d011682016040523d82523d5f602084013e612af6565b606091505b5050905080612b185760405163467d86d160e01b815260040160405180910390fd5b60405182815233907f50162071084f8224308c7b81a2a261c209c326b5d853d294630e694d291c3f469060200160405180910390a250612b5760018055565b50565b600f546040516116e7916001600160a01b031690612b849088908890889088908890602401614f1b565b60408051601f198184030181529190526020810180516001600160e01b03166346849b6560e11b179052613c6d565b5f60028383604051612bc6929190615201565b908152604051908190036020019020600101546001600160a01b0316905092915050565b60605f805f612bf8886142b6565b9250925092505f85845f0151612c0e9190615301565b9050803414612c3057604051631fbbed9560e01b815260040160405180910390fd5b5f80612c3c85856143db565b604051638146725d60e01b815291935091506001600160a01b038c1690638146725d90612c73908f908e908e908e90600401615318565b5f604051808303815f875af1158015612c8e573d5f803e3d5ffd5b505050506040513d5f823e601f3d908101601f19168201604052612cb5919081019061534d565b96508a6001600160a01b03168c6001600160a01b0316336001600160a01b03167f076087249cc1bff024d3fd9a66acfa90c885c58130f77aa8432365c18b881155888e8e8e89896040516110829695949392919061537e565b5f546001600160a01b03163314801590612d375750335f9081526006602052604090205460ff16155b15612d5757604051634a0bfec160e01b8152336004820152602401610b2e565b610bb881604001511180612d6d57508051610bb8105b80612d7d5750610bb88160200151115b15612d9b5760405163ac98d7e160e01b815260040160405180910390fd5b6040805160c0810182528251606080830191825260208086015160808501528585015160a085015291835242918301919091528301511515818301529051600a90612de79085906153c2565b908152604080516020928190038301812084518051825580850151600183015583015160028201559284015160038401559201516004909101805460ff19169115159190911790557f726e1a6dc4702ca2dd857133c390ae929035f610e43f6ed43486fd28448b356c90612e5e90849084906153dd565b60405180910390a15050565b5f612ea983838080601f0160208091040260200160405190810160405280939291908181526020018383808284375f92019190915250613a4092505050565b6001810154909150336001600160a01b0390911603610b17578054336001600160a01b03198083168217845560018401805490911690556040516001600160a01b039092169182907f451aeab86c6d5f4f1e89b07b8f8888400baf6aa5f59e1c279a46b0c1952ac0c590610d8e9088908890614ed5565b5f546001600160a01b03163314801590612f495750335f9081526006602052604090205460ff16155b15612f6957604051634a0bfec160e01b8152336004820152602401610b2e565b610bb881604001511180612f7f57508051610bb8105b80612f8f5750610bb88160200151115b15612fad5760405163ac98d7e160e01b815260040160405180910390fd5b604080516060810182528281524260208201526001818301529051600a815260408051602092819003830181208451805182558085015160018301558301516002820155848401516003820155938201516004909401805460ff19169415159490941790935583518352838201519183019190915282810151908201527f840d08fa70df727f0f04bee66eb39d0d792c7ed6a01c4f20da90c795094fcd96906060016114a7565b5f61305e83613a40565b905061306981613bca565b6001600160a01b0382165f81815260088301602052604090819020805460ff191660011790555133907f515da31886e3aa106de7c9edca6c8cb7b6f9bd05ad8709ccf034a42a3e72f59290611a5c908790615210565b600f546040516128d2916001600160a01b0316906130e7908790879087908790602401615288565b60408051601f198184030181529190526020810180516001600160e01b031663bb75af4f60e01b179052613c6d565b61313f60405180608001604052805f81526020015f81526020015f81526020015f151581525090565b600b8260405161314f91906153c2565b908152604080519182900360209081018320608084018352805484526001810154918401919091526002810154918301919091526003015460ff161515606082015292915050565b6040516301ffc9a760e01b81525f906001600160a01b038316906301ffc9a7906131cc9063f44c3bf760e01b90600401614e66565b602060405180830381865afa1580156131e7573d5f803e3d5ffd5b505050506040513d601f19601f8201168201806040525081019061320b9190614e7b565b613228576040516312f140a360e01b815260040160405180910390fd5b5f6132356121ac84613e29565b6001600160a01b039093165f90815260059093016020525050604090205490565b5f61329586868080601f0160208091040260200160405190810160405280939291908181526020018383808284375f92019190915250613a4092505050565b90506132a081613c41565b60018101805461ffff60a01b1916600160a01b8615150260ff60a81b191617600160a81b851515021760ff60b01b1916600160b01b8415150217905560405133907f3215b9b9ca35937d586930fd6708e3a5ca195c6ca3d7cca647e9582a652d8d8f906133169089908990899089908990615421565b60405180910390a2505050505050565b5f546001600160a01b0316331480159061334f5750335f9081526006602052604090205460ff16155b1561336f57604051634a0bfec160e01b8152336004820152602401610b2e565b5f8061337a83613cec565b604080516080810182528351815260208085015190820152818401519181019190915281151560608201529193509150816133ee57600b846040516133bf91906153c2565b9081526040519081900360200190205f808255600182018190556002820155600301805460ff19169055613440565b80600b856040516133ff91906153c2565b90815260408051602092819003830190208351815591830151600183015582015160028201556060909101516003909101805460ff19169115159190911790555b7f02b2a9cae8c87e55612c5a76816d47261382ed26ab2b1804b11930009964504584826040516134719291906153dd565b60405180910390a150505050565b6040805180820182525f808252602082015290516301ffc9a760e01b81526001600160a01b038316906301ffc9a7906134c390631a2b25a160e11b90600401614e66565b602060405180830381865afa1580156134de573d5f803e3d5ffd5b505050506040513d601f19601f820116820180604052508101906135029190614e7b565b61351f576040516312f140a360e01b815260040160405180910390fd5b5f61352c6121ac84613e29565b6001600160a01b039093165f908152600490930160209081526040938490208451808601909552805485526001015460ff161515908401525090919050565b600f546040516128d2916001600160a01b031690613593908790879087908790602401615288565b60408051601f198184030181529190526020810180516001600160e01b0316636fec7a2160e11b179052613c6d565b80336001600160a01b038216146135ee57604051634a0bfec160e01b8152336004820152602401610b2e565b6040516001600160601b0319606086811b821660208401526034830186905284901b1660548201525f9060680160408051601f1981840301815291815281516020928301205f90815260049092529020805460ff191690555050505050565b613655613c15565b6001600160a01b0381165f81815260066020526040808220805460ff191660011790555133917feb16cff7b06b20a8201912d997009e25a8c9d513ccbff789b8e280a8b67fd10291a350565b5f805f806136ae876142b6565b925092509250825f015134146136d757604051631fbbed9560e01b815260040160405180910390fd5b5f806136e384846143db565b60405163b510391f60e01b815291935091506001600160a01b038a169063b510391f90613718908d908c908c90600401615453565b6020604051808303815f875af1158015613734573d5f803e3d5ffd5b505050506040513d601f19601f820116820180604052508101906137589190614e96565b9550886001600160a01b03168a6001600160a01b0316336001600160a01b03167f5b33a4538f6e028b8b87530c4e849c529c56a4f3104972eae49056eea060a89f878c8c88886040516137af959493929190615480565b60405180910390a45050505050949350505050565b6137cc613c15565b6001600160a01b0381166137f557604051631e4fbdf760e01b81525f6004820152602401610b2e565b612b5781614267565b6040516301ffc9a760e01b81526001600160a01b038316906301ffc9a7906138319063f44c3bf760e01b90600401614e66565b602060405180830381865afa15801561384c573d5f803e3d5ffd5b505050506040513d601f19601f820116820180604052508101906138709190614e7b565b61388d576040516312f140a360e01b815260040160405180910390fd5b5f61389783613907565b90505f6138a382613a40565b90506138b0828286613a8d565b6138b981613bca565b6001600160a01b0384165f81815260058301602052604090819020859055517fea50d720f019b7c7b7a424f9d2b54f89eef89d12a65d0f9c2a9b06f426fe34f89061190b90859087906151e0565b6001600160a01b0381165f908152600c6020526040902080546060919061392d906154ba565b80601f0160208091040260200160405190810160405280929190818152602001828054613959906154ba565b80156139a45780601f1061397b576101008083540402835291602001916139a4565b820191905f5260205f20905b81548152906001019060200180831161398757829003601f168201915b5050505050905080515f03613a3b57816001600160a01b031663f44c3bf76040518163ffffffff1660e01b81526004015f60405180830381865afa1580156139ee573d5f803e3d5ffd5b505050506040513d5f823e601f3d908101601f19168201604052613a1591908101906154ec565b6001600160a01b0383165f908152600c60205260409020909150613a398282615598565b505b919050565b5f600282604051613a5191906153c2565b90815260405190819003602001902080549091506001600160a01b0316613a3b5781604051638ffd431560e01b8152600401610b2e9190615210565b6001820154600160b01b900460ff168015613ac257506001600160a01b0381165f90815260038301602052604090205460ff16155b156129415782816040516338f670f360e11b8152600401610b2e929190615653565b6001600160a01b0381165f9081526005830160205260408120548190348114613b2057604051631fbbed9560e01b815260040160405180910390fd5b3415613bc1575f80600b88604051613b3891906153c2565b908152604051908190036020019020600381015490915060ff1615613b635780600101549150613b69565b60085491505b612710613b768334615301565b613b80919061567c565b9350613b8c8434615236565b94508360055f828254613b9f9190615249565b9250508190555084876007015f828254613bb99190615249565b909155505050505b50935093915050565b80546001600160a01b03163314801590613bf55750335f90815260028201602052604090205460ff16155b15612b5757604051634a0bfec160e01b8152336004820152602401610b2e565b5f546001600160a01b031633146128ea5760405163118cdaa760e01b8152336004820152602401610b2e565b80546001600160a01b03163314612b5757604051634a0bfec160e01b8152336004820152602401610b2e565b60605f80846001600160a01b031684604051613c8991906153c2565b5f60405180830381855af49150503d805f8114613cc1576040519150601f19603f3d011682016040523d82523d5f602084013e613cc6565b606091505b509150915081613ce45780515f03613cdc575f80fd5b805181602001fd5b949350505050565b613d0d60405180606001604052805f81526020015f81526020015f81525090565b5f80600a84604051613d1f91906153c2565b9081526020016040518091039020905080600301545f03613d5357604051630cc3db6f60e41b815260040160405180910390fd5b621275008160030154613d669190615249565b421015613d865760405163333bd2cb60e11b815260040160405180910390fd5b6040805160608101825282548152600183015460208201526002830154818301526004830154915190945060ff9091169250600a90613dc69086906153c2565b9081526040519081900360200190205f80825560018201819055600282018190556003820155600401805460ff19169055509092909150565b600260015403613e2257604051633ee5aeb560e01b815260040160405180910390fd5b6002600155565b6001600160a01b0381165f908152600c60205260409020805460609190613e4f906154ba565b80601f0160208091040260200160405190810160405280929190818152602001828054613e7b906154ba565b8015613ec65780601f10613e9d57610100808354040283529160200191613ec6565b820191905f5260205f20905b815481529060010190602001808311613ea957829003601f168201915b5050505050905080515f03613a3b57816001600160a01b031663f44c3bf76040518163ffffffff1660e01b81526004015f60405180830381865afa158015613f10573d5f803e3d5ffd5b505050506040513d5f823e601f3d908101601f19168201604052612a2291908101906154ec565b6040516301ffc9a760e01b81526001600160a01b038716906301ffc9a790613f6a90633f20963560e11b90600401614e66565b602060405180830381865afa158015613f85573d5f803e3d5ffd5b505050506040513d601f19601f82011682018060405250810190613fa99190614e7b565b613fd1576040516381e91a8360e01b81526001600160a01b0387166004820152602401610b2e565b60405162080f7160eb1b8152600481018490525f9081906001600160a01b0389169063407b8800906024016040805180830381865afa158015614016573d5f803e3d5ffd5b505050506040513d601f19601f8201168201806040525081019061403a919061525c565b91509150816001600160a01b0316846001600160a01b031614158061405f5750808314155b15614085578383838360405163b079d6bb60e01b8152600401610b2e9493929190615288565b6040516306a25e1560e11b81526001600160a01b038881166004830152878116602483015260448201879052891690630d44bc2a906064015f604051808303815f87803b1580156140d4575f80fd5b505af11580156140e6573d5f803e3d5ffd5b50506040516301ffc9a760e01b81526001600160a01b038b1692506301ffc9a7915061411d9063209fddd160e21b90600401614e66565b602060405180830381865afa158015614138573d5f803e3d5ffd5b505050506040513d601f19601f8201168201806040525081019061415c9190614e7b565b156129e95760405163056bb56b60e01b81526004810186905288905f9081906001600160a01b0384169063056bb56b906024015f60405180830381865afa1580156141a9573d5f803e3d5ffd5b505050506040513d5f823e601f3d908101601f191682016040526141d0919081019061510e565b915091505f5b8251811015614259575f6001600160a01b03168382815181106141fb576141fb6151cc565b60200260200101516001600160a01b03161461425157614251838281518110614226576142266151cc565b60200260200101518c8c858581518110614242576142426151cc565b6020026020010151888e613f37565b6001016141d6565b505050505050505050505050565b5f80546001600160a01b038381166001600160a01b0319831681178455604051919092169283917f8be0079c531659141344cd1fd0a4f28419497f9722a3daafe3b4186f6b6457e09190a35050565b604080518082019091525f808252602082015260605f836001600160a01b03166301ffc9a7631a2b25a160e11b6040518263ffffffff1660e01b81526004016142ff9190614e66565b602060405180830381865afa15801561431a573d5f803e3d5ffd5b505050506040513d601f19601f8201168201806040525081019061433e9190614e7b565b61435b576040516312f140a360e01b815260040160405180910390fd5b61436484613e29565b915061436f82613a40565b905061437c828286613a8d565b6001600160a01b0384165f9081526004820160209081526040918290208251808401909352805483526001015460ff1615159082018190529093506143d45760405163914edb0f60e01b815260040160405180910390fd5b9193909250565b5f80341561447b575f80600b866040516143f591906153c2565b908152604051908190036020019020600381015490915060ff161561441d5780549150614423565b60075491505b6127106144308334615301565b61443a919061567c565b92506144468334615236565b93508260055f8282546144599190615249565b9250508190555083856007015f8282546144739190615249565b909155505050505b9250929050565b6001600160a01b0381168114612b57575f80fd5b5f805f80608085870312156144a9575f80fd5b84356144b481614482565b935060208501356144c481614482565b92506040850135915060608501356144db81614482565b939692955090935050565b5f8083601f8401126144f6575f80fd5b5081356001600160401b0381111561450c575f80fd5b60208301915083602082850101111561447b575f80fd5b5f805f60408486031215614535575f80fd5b83356001600160401b0381111561454a575f80fd5b614556868287016144e6565b909450925050602084013561456a81614482565b809150509250925092565b5f805f805f60a08688031215614589575f80fd5b853561459481614482565b945060208601356145a481614482565b93506040860135925060608601356145bb81614482565b915060808601356145cb81614482565b809150509295509295909350565b634e487b7160e01b5f52604160045260245ffd5b604051601f8201601f191681016001600160401b0381118282101715614615576146156145d9565b604052919050565b8015158114612b57575f80fd5b5f80828403606081121561463c575f80fd5b833561464781614482565b92506040601f198201121561465a575f80fd5b50604051604081018181106001600160401b038211171561467d5761467d6145d9565b6040908152602085013582528401356146958161461d565b6020820152919491935090915050565b5f602082840312156146b5575f80fd5b8135611d0581614482565b5f80602083850312156146d1575f80fd5b82356001600160401b038111156146e6575f80fd5b6146f2858286016144e6565b90969095509350505050565b5f8083601f84011261470e575f80fd5b5081356001600160401b03811115614724575f80fd5b6020830191508360208260051b850101111561447b575f80fd5b5f805f805f8060808789031215614753575f80fd5b86356001600160401b0380821115614769575f80fd5b6147758a838b016146fe565b9098509650602089013591508082111561478d575f80fd5b5061479a89828a016146fe565b90955093505060408701356147ae81614482565b80925050606087013590509295509295509295565b5f80604083850312156147d4575f80fd5b82356147df81614482565b946020939093013593505050565b5f805f805f60a08688031215614801575f80fd5b853561480c81614482565b945060208601359350604086013561482381614482565b94979396509394606081013594506080013592915050565b5f6001600160401b03821115614853576148536145d9565b50601f01601f191660200190565b5f82601f830112614870575f80fd5b813561488361487e8261483b565b6145ed565b818152846020838601011115614897575f80fd5b816020850160208301375f918101602001919091529392505050565b5f80604083850312156148c4575f80fd5b82356001600160401b038111156148d9575f80fd5b6148e585828601614861565b92505060208301356148f681614482565b809150509250929050565b5f805f60608486031215614913575f80fd5b833561491e81614482565b9250602084013561492e81614482565b9150604084013561456a81614482565b5f806040838503121561494f575f80fd5b82356001600160401b03811115614964575f80fd5b61497085828601614861565b95602094909401359450505050565b5f8060408385031215614990575f80fd5b823561499b81614482565b915060208301356148f681614482565b5f602082840312156149bb575f80fd5b81356001600160401b038111156149d0575f80fd5b613ce484828501614861565b5f805f606084860312156149ee575f80fd5b83356149f981614482565b92506020840135614a0981614482565b929592945050506040919091013590565b5f805f8060808587031215614a2d575f80fd5b8435614a3881614482565b9350602085013592506040850135614a4f81614482565b915060608501356144db81614482565b5f805f60608486031215614a71575f80fd5b8335614a7c81614482565b95602085013595506040909401359392505050565b5f805f8060808587031215614aa4575f80fd5b8435614aaf81614482565b9350602085013592506040850135614ac681614482565b9396929550929360600135925050565b5f805f805f805f60a0888a031215614aec575f80fd5b87356001600160401b0380821115614b02575f80fd5b614b0e8b838c016146fe565b909950975060208a0135915080821115614b26575f80fd5b50614b338a828b016146fe565b9096509450506040880135614b4781614482565b969995985093969295946060840135945060809093013592915050565b5f60208284031215614b74575f80fd5b5035919050565b5f805f805f60808688031215614b8f575f80fd5b8535614b9a81614482565b94506020860135614baa81614482565b935060408601356001600160401b03811115614bc4575f80fd5b614bd0888289016144e6565b96999598509660600135949350505050565b602080825282518282018190525f9190848201906040850190845b81811015614c1957835183529284019291840191600101614bfd565b50909695505050505050565b5f8082840360a0811215614c37575f80fd5b83356001600160401b0380821115614c4d575f80fd5b614c5987838801614861565b94506080601f1984011215614c6c575f80fd5b60405192506080830191508282108183111715614c8b57614c8b6145d9565b5080604052506020840135815260408401356020820152606084013560408201526080840135614cba8161461d565b6060820152919491935090915050565b5f60608284031215614cda575f80fd5b604051606081018181106001600160401b0382111715614cfc57614cfc6145d9565b80604052508235815260208301356020820152604083013560408201528091505092915050565b81518152602080830151908201526040808301519082015260608083015115159082015260808101612a22565b5f805f805f60808688031215614d64575f80fd5b85356001600160401b03811115614d79575f80fd5b614d85888289016144e6565b9096509450506020860135614d998161461d565b92506040860135614da98161461d565b915060608601356145cb8161461d565b8151815260208083015115159082015260408101612a22565b5f805f60608486031215614de4575f80fd5b8335614def81614482565b925060208401359150604084013561456a81614482565b5f805f8060608587031215614e19575f80fd5b8435614e2481614482565b93506020850135614e3481614482565b925060408501356001600160401b03811115614e4e575f80fd5b614e5a878288016144e6565b95989497509550505050565b6001600160e01b031991909116815260200190565b5f60208284031215614e8b575f80fd5b8151611d058161461d565b5f60208284031215614ea6575f80fd5b5051919050565b81835281816020850137505f828201602090810191909152601f909101601f19169091010190565b602081525f613ce4602083018486614ead565b6001600160601b0319606095861b81168252601482019490945291841b8316603483015290921b166048820152605c0190565b6001600160a01b03958616815260208101949094529190931660408301526060820192909252608081019190915260a00190565b5f5b83811015614f69578181015183820152602001614f51565b50505f910152565b5f8151808452614f88816020860160208601614f4f565b601f01601f19169290920160200192915050565b606081525f614fae6060830185614f71565b9050611d056020830184805182526020908101511515910152565b8183525f60208085019450825f5b85811015615005578135614fea81614482565b6001600160a01b031687529582019590820190600101614fd7565b509495945050505050565b8183525f6001600160fb1b03831115615027575f80fd5b8260051b80836020870137939093016020019392505050565b608081525f61505360808301888a614fc9565b8281036020840152615066818789615010565b6001600160a01b03959095166040840152505060600152949350505050565b5f6001600160401b0382111561509d5761509d6145d9565b5060051b60200190565b5f82601f8301126150b6575f80fd5b815160206150c661487e83615085565b8083825260208201915060208460051b8701019350868411156150e7575f80fd5b602086015b8481101561510357805183529183019183016150ec565b509695505050505050565b5f806040838503121561511f575f80fd5b82516001600160401b0380821115615135575f80fd5b818501915085601f830112615148575f80fd5b8151602061515861487e83615085565b82815260059290921b84018101918181019089841115615176575f80fd5b948201945b8386101561519d57855161518e81614482565b8252948201949082019061517b565b918801519196509093505050808211156151b5575f80fd5b506151c2858286016150a7565b9150509250929050565b634e487b7160e01b5f52603260045260245ffd5b604081525f6151f26040830185614f71565b90508260208301529392505050565b818382375f9101908152919050565b602081525f611d056020830184614f71565b634e487b7160e01b5f52601160045260245ffd5b81810381811115612a2257612a22615222565b80820180821115612a2257612a22615222565b5f806040838503121561526d575f80fd5b825161527881614482565b6020939093015192949293505050565b6001600160a01b039485168152602081019390935292166040820152606081019190915260800190565b60a081525f6152c560a08301898b614fc9565b82810360208401526152d881888a615010565b6001600160a01b0396909616604084015250506060810192909252608090910152949350505050565b8082028115828204841417612a2257612a22615222565b6001600160a01b03851681526060602082018190525f9061533c9083018587614ead565b905082604083015295945050505050565b5f6020828403121561535d575f80fd5b81516001600160401b03811115615372575f80fd5b613ce4848285016150a7565b60a081525f61539060a0830189614f71565b82810360208401526153a381888a614ead565b6040840196909652505060608101929092526080909101529392505050565b5f82516153d3818460208701614f4f565b9190910192915050565b60a081525f6153ef60a0830185614f71565b9050611d0560208301848051825260208101516020830152604081015160408301526060810151151560608301525050565b608081525f615434608083018789614ead565b9415156020830152509115156040830152151560609091015292915050565b6001600160a01b03841681526040602082018190525f906154779083018486614ead565b95945050505050565b608081525f6154926080830188614f71565b82810360208401526154a5818789614ead565b60408401959095525050606001529392505050565b600181811c908216806154ce57607f821691505b602082108103613a3957634e487b7160e01b5f52602260045260245ffd5b5f602082840312156154fc575f80fd5b81516001600160401b03811115615511575f80fd5b8201601f81018413615521575f80fd5b805161552f61487e8261483b565b818152856020838501011115615543575f80fd5b615477826020830160208601614f4f565b601f82111561294157805f5260205f20601f840160051c810160208510156155795750805b601f840160051c820191505b818110156128d2575f8155600101615585565b81516001600160401b038111156155b1576155b16145d9565b6155c5816155bf84546154ba565b84615554565b602080601f8311600181146155f8575f84156155e15750858301515b5f19600386901b1c1916600185901b1785556116e7565b5f85815260208120601f198616915b8281101561562657888601518255948401946001909101908401615607565b508582101561564357878501515f19600388901b60f8161c191681555b5050505050600190811b01905550565b604081525f6156656040830185614f71565b905060018060a01b03831660208301529392505050565b5f8261569657634e487b7160e01b5f52601260045260245ffd5b50049056fea2646970667358221220d0bbe335ccb9a29e2ce72f8681ba534e1983dad1e49733d662abf6d21e48c35f64736f6c63430008170033","linkReferences":{}},"methodIdentifiers":{"CONTRACT_UPGRADE_TIMELOCK()":"28605222","FEE_CHANGE_TIMELOCK()":"2c14d552","acceptScopeTransfer(string)":"a6528592","addBanker(string,address)":"b2c050e7","addOperator(string,address)":"50545d2f","addProtocolBanker(address)":"e93ce2c1","addWhitelist(string,address)":"0199abce","applyTransfer(address,address,uint256)":"46d642dc","assign(address,uint256,address,uint256)":"6a72780f","assign(address,uint256,address,uint256,uint256)":"8d0936ca","assignBatch(address[],uint256[],address,uint256)":"157e2e37","assignBatch(address[],uint256[],address,uint256,uint256)":"85672ef5","balanceOf(string)":"35ee5f87","balanceOfProtocol()":"f6b48bfa","cancelScopeTransfer(string)":"1085bc7f","claimScope(string)":"2c24e9ab","commitAssignerDelegate()":"38948ae0","commitProtocolFeeConfig()":"1ff23295","commitScopeFeeOverride(string)":"d7a353bf","getAssignFee(address)":"42c5cc4f","getMintConfiguration(address)":"dad8d791","getPatchFee(address)":"c7af3781","getProtocolFeeConfig()":"7978bd01","getScopeFeeOverride(string)":"c4346819","getScopeOwner(string)":"89552647","getScopeOwnerElect(string)":"91c75c33","mint(address,address,bytes)":"f1ddecf9","mintBatch(address,address,bytes,uint256)":"9e5ea79d","owner()":"8da5cb5b","patch(address,address,uint256,address)":"00a3b9c1","patch1155(address,address,uint256,address,address)":"0841d171","patchAccount(address,address,address)":"2fcfd571","patchBurned(address,uint256,address)":"e71435d9","patchBurned1155(address,uint256,address,address)":"5f9acbe2","patchBurnedAccount(address,address)":"33f5ebf6","proposeAssignerDelegate(address)":"3cc32ea9","proposeProtocolFeeConfig((uint256,uint256,uint256))":"aaf8190d","proposeScopeFeeOverride(string,(uint256,uint256,uint256,bool))":"a03f9690","removeBanker(string,address)":"2f1dd49f","removeOperator(string,address)":"335eb2cd","removeProtocolBanker(address)":"0dab835f","removeWhitelist(string,address)":"683ec78e","renounceOwnership()":"715018a6","setAssignFee(address,uint256)":"2881ac36","setMintConfiguration(address,(uint256,bool))":"09d01a22","setPatchFee(address,uint256)":"fd91b498","setScopeRules(string,bool,bool,bool)":"d62ad08a","transferOwnership(address)":"f2fde38b","transferScopeOwnership(string,address)":"10754fa9","unassign(address,uint256,address,uint256)":"bb75af4f","unassign(address,uint256,address,uint256,uint256)":"4e1b867c","unassignMulti(address,uint256,address,uint256)":"dfd8f442","unassignMulti(address,uint256,address,uint256,uint256)":"259d234b","unassignSingle(address,uint256)":"792bbea7","unassignSingle(address,uint256,uint256)":"670c2c31","updateOwnershipTree(address,uint256)":"201368f2","withdraw(string,uint256)":"30b39a62","withdrawFromProtocol(uint256)":"8a924640"},"id":36}